:1000000093005000130150006384200093011000FE
:10001000930120001302A0009302A0006316520077
:10002000130330006F0080001303300693031000A9
:100030009383130063862300130440006F00800045
:100040001304300693047000130570006384A40049
:10005000930510006396A400930520006F008000B4
:10006000930530066F06C000930610006F00C000B5
:100070009306A00267000600170700001307470158
:10008000E7070700130810006F00C0001308700393
:08009000678007006300000017
:00000001FF
