:1000000017810010130101001305800A97050010E5
:10001000938545FF170600101306C6FE63D9C50079
:100020008322050023A0550011059105C5BF1705C2
:100030000010130525FD970500109385A5FC635658
:10004000B500232005001105DDBF112001A001111D
:1000500006CE22CC001009282726A4FE8727C4FE3E
:10006000D39707C03E8E01A0011106CE22CC00100E
:100070008727000A2726F4FE8727400A2724F4FE54
:100080000727C4FE872784FED377F7002722F4FED4
:10009000872744FE5385F720F24062440561828041
:0800A0009A991940F90F49403B
:00000001FF
