:10000000130101FE232E1100232C81001304010291
:1000100013054000EF00800D930705002326F4FE32
:10002000B717001003A787888327C4FE23A0E70023
:100030008327C4FE83A707002324F4FE832784FEBE
:10004000138507008320C1010324810113010102EC
:1000500067800000178100101301C1FA1725000006
:100060001305C52F970500109385C52C1716001092
:100070001306468363DCC5008322050023A05500D8
:1000800013054500938545006FF0DFFE170500104E
:10009000130545F7970500109385C5256358B500EE
:1000A00023200500130545006FF05FFFEF10402D82
:1000B000EFF01FF5EF0080006F000000130101FF5B
:1000C000930500002324810023261100130405005A
:1000D000EF1080459707001083A7872263840700ED
:1000E000E780070013050400EF20400F930505008B
:1000F000170500100325457A6F00400193050500A0
:1001000017050010032545796F10C06D130101FC20
:10011000232C8102232E11029387B500130760015F
:1001200013040500636EF7089306000163ECB6063E
:10013000EF001008930600011307800193082000C8
:10014000170800101308081F3307E800832747002B
:10015000130687FF638EC74603A7470003A6C700A1
:1001600083A587001377C7FF3387E70083264700FF
:1001700023A6C5002326F1002324B60093E616002B
:10018000130504002322D700EF0050038327C1008A
:100190008320C10303248103138587001301010415
:1001A000678000009307C0002320F40013050000BF
:1001B0008320C1030324810313010104678000002D
:1001C00093F687FFE3C007FEE3EEB6FC2326D100DB
:1001D000EF00007E8326C1009307701F63F8D74E9F
:1001E00093D79600638E071613074000636AF7449F
:1001F00093D7660093889703138E8703139538006F
:1002000017080010130808133305A80083274500BA
:10021000130585FF6308F5021303F0006F0040012A
:1002200083A5C70063560636630EB50093870500A5
:1002300003A747001377C7FF3306D740E352C3FE37
:1002400093080E0083270801970E0010938E0E0F5F
:10025000638ED72F03A747009305F0001377C7FFDE
:100260003306D74063CEC548232AD8012328D801B6
:10027000635406461306F01F032348006362E63604
:10028000137687FF130686003306C8008325060011
:1002900013555700130710003317A7003363E3000B
:1002A000130786FF23A4B70023A6E70023226800D4
:1002B0002320F60023A6F50093D72840130510004D
:1002C0003315F5006366A30AB377650063940702EC
:1002D0001315150093F8C8FFB3776500938848009D
:1002E000639A070013151500B377650093884800DB
:1002F000E38A07FE130EF000139F3800330FE80166
:1003000013030F000327C300938F0800630CE3342B
:1003100003264700930707000327C7001376C6FF8D
:10032000B305D640634CBE34E3C205FE3386C70036
:100330008326460083A587001305040093E6160074
:100340002322D60023A6E5002324B7002326F100AC
:10035000EF00C0668327C100138587006FF05FE55B
:100360001305002093080004130EF0036FF05FE9FB
:100370008327880003A747001373C7FF3306D340C2
:100380006366D300132706016306071C9705001058
:1003900083A5C5F6170600100326864F1307F0FF46
:1003A000B385B6006302E644371700001307F70071
:1003B000B385E50037F7FFFFB3F5E500130504004B
:1003C000232E0101232CF100232AD10023286100D0
:1003D0002326B100EF00106F1307F0FF8325C10043
:1003E0000323010183264101832781010328C101E1
:1003F000130E0500170F0010130F8F496300E53629
:1004000033876700636AE534970E0010938E8EBFC2
:1004100003A60E003386C50023A0CE006304A74ABE
:1004200083280F001305F0FF638CA84A3307EE40C2
:100430003307C70023A0EE00137F7E0063060F3C46
:10044000137E8EFFB7180000130E8E00938888006D
:100450003306BE00B385E841B385C5409395450199
:1004600093D54501130504002326D103232401035A
:100470002322F1022320D102232E6100232CC1016B
:10048000232AE1012328C1002326B100EF00906355
:10049000130705001305F0FF8325C10003260101A2
:1004A000032F4101032E81010323C1018326010291
:1004B0008327410203288102832EC1026308A746D5
:1004C00003A60E003307C7413307B70013671700B1
:1004D0002324C8013386C5002322EE0023A0CE00CA
:1004E000638E07031305F0006370654083A5470022
:1004F000130743FF137787FF93F51500B3E5E50076
:1005000023A2B70093085000B385E70023A215018A
:1005100023A415016364E54203274E0097070010EA
:1005200083A787DD63F6C7009707001023A6C7DC03
:100530009707001083A707DC63F6C7009707001032
:1005400023AAC7DA93070E006F00C02103234800D7
:100550006FF09FD613E7160023A2E700B386D700FB
:10056000136616002324D8001305040023A2C60036
:100570002326F100EF0080448327C1008320C103BC
:1005800003248103138587001301010467800000A1
:1005900003A687003387E700832647002326B6009B
:1005A0002326F10093E6160023A4C50013050400DA
:1005B0002322D700EF0080408327C1008320C1039E
:1005C0000324810313858700130101046780000061
:1005D0008327C70093882800E306F7C66FF0DFB7CC
:1005E000135697009305400063FEC5149305400120
:1005F00063E2C5281305C605131535009305B60536
:100600003305A80003260500130585FF6318C50000
:100610006F00001E032686006308C5008325460080
:1006200093F5C5FFE368B7FE0325C60023A6A70020
:1006300023A4C7002324F5002326F6006FF0DFC7AC
:10064000130740016370F714130740056362F72432
:1006500093D7C6009388F706138EE70613953800E4
:100660006FF01FBA938F1F0093F73F0013038300AF
:10067000638807120327C3006FF05FC903A58700D3
:1006800093E8160023A217012326E5002324A700E0
:10069000B386D700232AD8002328D80013E71500F3
:1006A0003386C70023A6D60123A4D60123A2E600E1
:1006B000130504002320B6002326F100EF000030CC
:1006C0008327C100138587006FF09FAE93D8360053
:1006D000138786006FF0DFA63387E7008326470085
:1006E0002326F1001305040093E616002322D70009
:1006F000EF00C02C8327C100138587006FF05FAB2C
:1007000093E5160023A2B700B386D700232AD800AA
:100710002328D800936516003387E70023A6D60167
:1007200023A4D60123A2B600130504002320C7008A
:100730002326F100EF0080288327C100138587005E
:100740006FF01FA7135667001305960313153500A6
:10075000930586036FF0DFEA638A07158327880015
:1007600003A747001377C7FF3306D7406366D70058
:1007700013270601E30007DE13050400EF00002441
:100780006FF0DFA29388C705138EB7051395380065
:100790006FF01FA783278F009388F8FF6396E721E8
:1007A00093F73800130F8FFFE39607FE03274800E7
:1007B0009347F5FFB3F7E7002322F8001315150060
:1007C0001307F5FFE376F7BA3377F500631A0700EE
:1007D000131515003377F500938F4F00E30A07FEDA
:1007E00093880F006FF05FB1938505016FF01FBD17
:1007F00093D52540130710003317B7003363E30088
:10080000232268006FF09FE23306BE00B305C040AC
:100810009395450193D54501130504002324D10385
:10082000232201032320F102232ED100232C610077
:10083000232AC1012326B1002328C100EF009028FC
:10084000130705001305F0FF8325C100032E4101A6
:10085000032381018326C10183270102032841026A
:10086000832E8102E31EA7C4032701019305000024
:100870006FF01FC59305400563EEC5061356C7000C
:100880001305F606131535009305E6066FF05FD7DE
:1008900013074015636EF70693D7F6009388870712
:1008A000138E7707139538006FF09F9597FEFF0F13
:1008B000938E4E7503A60E003386C50023A0CE008E
:1008C0006FF01FB613154501E31C05B4032E880015
:1008D000B305B30013E715002322EE006FF01FC429
:1008E0002320CF016FF05FB5930710002322FE0095
:1008F0006FF09FE89305401563ECC5061356F700AB
:100900001305860713153500930576076FF05FCF43
:1009100013074055636CF70693D726019388D707D2
:10092000138EC707139538006FF09F8D130F8FFF3D
:100930003307E601930500006FF09FB893858700A9
:1009400013050400232AD101232801012326D10005
:10095000EF00506903280101832E41018326C10065
:10096000032E880003A60E0003274E006FF01FBB66
:100970009305405563E4C502135627011305D607B6
:10098000131535009305C6076FF09FC71305803F09
:100990009308F007130EE0076FF09F861305803F62
:1009A0009305E0076FF0DFC5832748006FF01FE174
:1009B00017050010130545966F0010261705001047
:1009C000130585956F00D02617060010130606D76D
:1009D000971500009385451017050010130505D7DE
:1009E0006F00004D83254500130101FF2324810082
:1009F0002326110097F7FF0F938747631304050021
:100A00006384F500EF10000D8325840097F7FF0F36
:100A1000938747686386F50013050400EF10800B89
:100A20008325C40097F7FF0F9387476D638CF5000C
:100A300013050400032481008320C1001301010178
:100A40006F1040098320C1000324810013010101BC
:100A50006780000083A7450693F717006398070097
:100A600083D7C50093F707206386070013050000AE
:100A70006780000003A58505130101FF23261100EF
:100A8000EF0090198320C10013050000130101013C
:100A90006780000083A7450693F717006398070057
:100AA00083D7C50093F7072063860700130500006E
:100AB0006780000003A58505130101FF23261100AF
:100AC000EF0010178320C10013050000130101017E
:100AD00067800000130101FE97070000938707EF6E
:100AE000232E1100232C8100232A910017F4FF0FDD
:100AF0001304C45323282101232631012324410157
:100B0000130680009305000017F7FF0F232AF77ED6
:100B100017F5FF0F13054557930740002326F400F0
:100B2000232004002322040023240400232204069B
:100B300023280400232A0400232C0400EF00900F34
:100B4000170A0000130A4A429709000093890948CE
:100B50001709000013090950970400009384C45535
:100B600017F5FF0F130505522320440323223403F6
:100B70002324240323269402232E8400EF00D0088C
:100B8000B7070100938797001306800093050000C4
:100B900017F5FF0F1305C555232AF4062324040671
:100BA00023260406232804062326040C232C0406EB
:100BB000232E040623200408EF00D00797F7FF0F29
:100BC0009387474D17F5FF0F130545522322F4086D
:100BD000232444092326340923282409232A94089A
:100BE000EF009002B70702009387270113068000E9
:100BF0009305000017F5FF0F13050556232EF40C7F
:100C00002328040C232A040C232C040C232A04126A
:100C10002320040E2322040E2324040EEF0090014F
:100C200097F7FF0F9387874D2328440F232A340F0C
:100C3000232C240F232E940E2326F40E032481014B
:100C40008320C10183244101032901018329C100BB
:100C5000032A810017F5FF0F1305C54F1301010289
:100C60006F00807A130101FE232A9100930405008E
:100C700017F5FF0F1305056B232E1100232C8100A0
:100C8000EF00807997F7FF0F83A7876763880710C6
:100C900017080010130888AA9306F0FF832748005E
:100CA0009387F7FF63CA0708032488006F00C0001A
:100CB000130484066382D7080317C4009387F7FFE1
:100CC000E31807FEB707FFFF938717002326F400FA
:100CD0001305840523220406EF00007317F5FF0FA8
:100CE00013054564EF00C0741305C40523200400F8
:100CF000232404002322040023280400232A0400C0
:100D0000232C04001306800093050000EF0080727E
:100D100023280402232A0402232204042324040493
:100D20008320C101130504000324810183244101B0
:100D30001301010267800000032408006306040019
:100D4000130804006FF09FF59305C01A1385040083
:100D500023260101EFF08FBB0328C1001304050017
:100D600063020504930740002322F5001305C50024
:100D7000232004002324A4001306001A9305000076
:100D800023260101EF00006B0328C1009306F0FF4A
:100D900023208800130804006FF05FF0EFF09FD36A
:100DA0006FF01FEF2320080017F5FF0F130585577D
:100DB000EF0000689307C00023A0F4006FF05FF617
:100DC000130101FF232481001304050017F5FF0F11
:100DD0001305455523261100EF00006483274403C3
:100DE000639E070097F7FF0F83A78751170700003F
:100DF000130787BF232AE402638E070003248100C0
:100E00008320C10017F5FF0F1305C5511301010120
:100E10006F000062EFF01FCC032481008320C1002B
:100E200017F5FF0F13050550130101016F00406016
:100E300017F5FF0F1305054F6F00005E17F5FF0F45
:100E40001305454E6F00C05E130101FF17F5FF0F3C
:100E50001305454D23261100EF00005C8320C100DF
:100E6000170600101306868D970500009385C5BEF2
:100E700013050000130101016F008003130101FF3E
:100E8000170600101306868B970500009385C5C0D2
:100E90001305000023261100EF0080018320C1000C
:100EA00017F5FF0F13050548130101016F004058A6
:100EB000130101FD23202103232E3101232C4101A5
:100EC000232A5101232861012326710123261102BF
:100ED0002324810223229102930A0600130B0500AA
:100EE000938B0500130A0000930910001309F0FF0B
:100EF00083A44A009384F4FF63CA040203A48A0013
:100F00008357C40063FEF9008317E40093050400CF
:100F100013050B0063862701E7800B00336AAA00E4
:100F20009384F4FF13048406E39C24FD83AA0A003F
:100F3000E3900AFC8320C10203248102832441023E
:100F4000032901028329C101832A4101032B0101E5
:100F5000832BC10013050A00032A81011301010339
:100F600067800000130101FF232481001384050022
:100F70008395E50023261100EF00802E63400502D3
:100F8000832704058320C100B387A7002328F40426
:100F90000324810013010101678000008357C4000E
:100FA00037F7FFFF1307F7FFB3F7E7008320C10010
:100FB0002316F4000324810013010101678000005F
:100FC00013050000678000008397C500130101FE30
:100FD00013830600232E110093F6071013870500D4
:100FE000930806001308050063980602B7F6FFFF92
:100FF0009386F6FF8320C101B3F7D7008315E7007E
:101000002316F70093060300138608001305080053
:10101000130101026F0080308395E5002324C10095
:101020009306200013060000232661002320E10020
:101030002322A100EF00801C032701000323C1002D
:10104000832881008317C700032841006FF01FFA2F
:10105000130101FF23248100138405008395E5001B
:1010600023261100EF0080191307F0FF8317C40037
:101070006302E50237170000B3E7E7008320C100F1
:101080002328A4042316F400032481001301010182
:10109000678000001307058013070780B3F7E70098
:1010A0008320C1002316F4000324810013010101F1
:1010B000678000008395E5006F004000130101FF89
:1010C00023248100130405001385050097F7FF0F03
:1010D00023AA072223261100EF10400C9307F0FFEC
:1010E000630AF5008320C10003248100130101017C
:1010F0006780000097F7FF0F83A7C720E38407FEF0
:101100008320C1002320F400032481001301010186
:101110006780000097F7FF0F83A70778638EA70CFF
:1011200083254504130101FE232A9100232E11007B
:10113000232C8100930405006388050423282101E2
:10114000232631011309000093090008B387250104
:1011500003A40700630E04009305040003240400A5
:1011600013850400EF000068E31804FE83A544041F
:1011700013094900E31C39FD13850400EF00806664
:10118000032901018329C10083A584036386050027
:1011900013850400EF00006503A40404630C04003D
:1011A000930504000324040013850400EF0080630A
:1011B000E31804FE83A5C4046386050013850400B8
:1011C000EF00406283A74403638E0700032481017C
:1011D0008320C1011385040083244101130101020E
:1011E000678007008320C10103248101832441011A
:1011F00013010102678000006780000093870500EB
:10120000130101FF23248100930506001304050048
:1012100013860600138507002326110097F7FF0F9A
:1012200023A2070EEF00907E9307F0FF630AF500FC
:101230008320C100032481001301010167800000A5
:1012400097F7FF0F83A7070CE38407FE8320C100F5
:101250002320F400032481001301010167800000B2
:1012600093870500130101FF2324810093050600E5
:1012700013040500138606001385070023261100BA
:1012800097F7FF0F23A00708EF00507C9307F0FFAC
:10129000630AF5008320C1000324810013010101CA
:1012A0006780000097F7FF0F83A7C705E38407FE59
:1012B0008320C1002320F4000324810013010101D5
:1012C00067800000130101FF23248100130405003F
:1012D0001385050097F7FF0F23A6070223261100A9
:1012E000EF00D07A9307F0FF630AF5008320C10076
:1012F00003248100130101016780000097F7FF0FAD
:1013000083A74700E38407FE8320C1002320F40065
:101310000324810013010101678000009387050009
:10132000130101FF23248100930506001304050027
:1013300013860600138507002326110097F7FF0F79
:1013400023A207FCEF00907C9307F0FF630AF500EF
:101350008320C10003248100130101016780000084
:1013600097F7FF0F83A707FAE38407FE8320C100E6
:101370002320F40003248100130101016780000091
:10138000130101FF232481002320210123261100C2
:101390002322910013090000130400006302890254
:1013A000330989401359294093040000832704001E
:1013B0009384140013044400E7800700E3E824FF4B
:1013C00013090000130400006302890233098940F5
:1013D00013592940930400008327040093841400C8
:1013E00013044400E7800700E3E824FF8320C100E2
:1013F000032481008324410003290100130101011A
:101400006780000067800000678000006780000040
:1014100067800000678000006780000013051000EF
:1014200067800000130510006780000067800000DF
:10143000678000001303F00013070500637EC302FA
:101440009377F7006390070A63920508937606FF87
:101450001376F600B386E6002320B7002322B700F8
:101460002324B7002326B70013070701E366D7FE3E
:101470006314060067800000B306C34093962600FD
:1014800097020000B38656006780C6002307B700A6
:10149000A306B7002306B700A305B7002305B700CE
:1014A000A304B7002304B700A303B7002303B700C6
:1014B000A302B7002302B700A301B7002301B700BE
:1014C000A300B7002300B7006780000093F5F50F75
:1014D00093968500B3E5D50093960501B3E5D50055
:1014E0006FF0DFF69396270097020000B386560050
:1014F00093820000E78006FA93800200938707FF3B
:101500003307F7403306F600E378C3F66FF0DFF3F6
:10151000930700006388070017150000130545B402
:101520006F00C01767800000130101FD23267101C1
:1015300097FBFF0F938B8B3623286101130B05005C
:1015400003A50B00232C410117FAFF0F130ACADD74
:10155000232021032324810123261102138C05005B
:10156000EFF09FEB03290A00630C0908232E3101D9
:10157000232A510123248102232291022322910153
:101580009309F0FF930A1000832449001384F4FFA9
:10159000634E040493942400B304990063140C086C
:1015A0008327490083A644009387F7FF6388870C4D
:1015B00023A20400638606028327891833978A00D2
:1015C000832C4900B377F70063920708E780060091
:1015D0000327490083270A00631C9709639A270998
:1015E0001304F4FF9384C4FFE31A34FB0324810241
:1015F000832441028329C101832A4101832C4100B4
:1016000003A50B008320C10203290102032A8101E3
:10161000032B0101832BC100032C81001301010363
:101620006FF01FE183A744101307F4FFE30AFCF6F1
:101630001304E4FFE30C37FB83A7041063848705DE
:10164000938484FFE31034FF6FF05FFA8327C91897
:1016500083A544083377F700631C070213050B00CA
:10166000E78006000327490083270A00E30897F76D
:10167000E38E07F6138907006FF01FF1232289001C
:101680006FF05FF3130407009384C4FF6FF05FF102
:1016900013850500E78006006FF09FF393050500B2
:1016A0009306000013060000130500006F00502091
:1016B000130101FE232C8100232A910023282101FC
:1016C0002326310113840500232E11001309050080
:1016D00097F9FF0F938909C6EFF08FAD83A78900B3
:1016E0003717000083A4470093F4C4FF9387F47F67
:1016F0009387077F338487401354C4001304F4FF97
:101700001314C400634EE4009305000013050900A0
:10171000EFF05FBB83A78900B38797006306F502EC
:1017200013050900EFF08FA98320C1010324810173
:1017300083244101032901018329C100130500000D
:101740001301010267800000B30580401305090002
:10175000EFF05FB79307F0FF6308F50403A7890074
:1017600097F7FF0F83A7078AB384844093E414009C
:101770002322970013050900B387874017F7FF0F4F
:101780002322F788EFF08FA38320C1010324810176
:1017900083244101032901018329C100130510009D
:1017A0001301010267800000930500001305090082
:1017B000EFF05FB103A789009306F000B307E5409F
:1017C000E3D0F6F697F6FF0F83A6860C93E7170093
:1017D0002322F7003305D54097F7FF0F23A4A782F4
:1017E0006FF01FF463840512130101FE232C8100A6
:1017F0002326B10013040500232E1100EFF04F9BA8
:101800008325C10097F8FF0F9388C8B203A888000A
:1018100003A5C5FF138785FF9377E5FF3306F70020
:10182000832646001373150093F6C6FF6308C81895
:101830002322D6003308D600032848001378180066
:10184000631A030803A385FF17F5FF0F130505AF00
:101850003307674083258700B3876700638AA51233
:101860000323C70023A665002324B3006300081ADE
:1018700093E617002322D7002320F6009306F01FDB
:1018800063E2F60A93F687FF9386860083A54800F5
:10189000B386D80003A6060013D55700930710009F
:1018A000B397A700B3E7B700938586FF2324C7004B
:1018B0002326B70023A2F80023A0E6002326E60093
:1018C00013050400032481018320C10113010102D7
:1018D0006FF0CF8E631E0802B387D70017F5FF0F96
:1018E0001305C5A58326860013E81700B305F70086
:1018F0006384A6160326C60023A6C6002324D600AA
:101900002322070123A0F5006FF05FF76780000036
:101910001365150023AEA5FE2320F6009306F01FE5
:10192000E3F2F6F693D69700130640006364D60EF2
:1019300093D66700938596039395350013868603A7
:10194000B385B80083A60500938585FF6398D5000D
:101950006F00401283A686006388D50003A6460068
:101960001376C6FFE3E8C7FE83A5C6002326B700AB
:101970002324D70013050400032481018320C1011F
:1019800023A4E50023A6E600130101026FF00F83F4
:101990006314080A8325C60003268600B386F60072
:1019A00093E716002326B60023A4C5002322F700E0
:1019B0003307D7002320D7006FF09FF0B386D700FE
:1019C0006310030283A785FF3307F74003268700D0
:1019D000B386F6008327C7002326F60023A4C7009A
:1019E00013E6160097F7FF0F83A7C7EA2322C70065
:1019F00023A4E800E3E6F6EC97F5FF0F83A5059036
:101A000013050400EFF0DFCA6FF09FEBB387D70038
:101A10006FF05FED130640016378D60213064005B0
:101A20006368D60693D6C7009385F606939535006E
:101A30001386E6066FF0DFF093E617002322D70047
:101A40002320F6006FF0DFE79385C60593953500F8
:101A50001386B6056FF0DFEE23AAE80023A8E8009E
:101A60002326A7002324A7002322070123A0F50093
:101A70006FF01FE503A5480013562640930710009A
:101A8000B397C700B3E7A70023A2F8006FF01FEEDB
:101A900013064015636CD60093D6F700938586072E
:101AA00093953500138676076FF09FE9130640552E
:101AB000636CD60093D627019385D607939535009E
:101AC0001386C6076FF0DFE79305803F1306E00734
:101AD0006FF01FE7130101FF2326110023202101CE
:101AE0006382050E232481002322910013840500C4
:101AF00093040500630605008327450363800710F0
:101B0000832744060317C40093F717006396070A58
:101B1000137707206308070E93050400138504005C
:101B2000EF0000138327C40213090500638A07002E
:101B30008325C40113850400E78007006340050A7C
:101B40008357C40093F707086392070A83250403A9
:101B5000638C0500930704046386F5001385040075
:101B6000EFF05FC82328040283254404638805003E
:101B700013850400EFF01FC723220404EFF04FABDE
:101B8000832744062316040093F717006384070A8B
:101B900003258405EFF0DF87EFF04FAA8320C10013
:101BA0000324810083244100130509000329010057
:101BB0001301010167800000E31007F60324810090
:101BC000832441008320C10013090000130509008C
:101BD0000329010013010101678000008357C4003D
:101BE0001309F0FF93F70708E38207F68325040142
:101BF00013850400EFF01FBF6FF05FF5EFF04F9C0F
:101C00006FF01FF003258405EFF01F818317C400D8
:101C1000E39407F08327440693F71700E39007FA4D
:101C200003258405EFF0DF80032481008324410035
:101C30006FF05FF903258405EFF08FFF6FF05FF51C
:101C40009305050017F5FF0F032505C56FF09FE805
:101C50000397C500130101FE232C810023263101C7
:101C6000232E110093778700138405009309050044
:101C700063920712B71700009387078083A6450079
:101C8000B367F7002396F500635CD018032884023D
:101C90006306080E232A91009316370183A40900D6
:101CA00023A0090063CA06188325C4011306000097
:101CB0009306100013850900E70008009307F0FF62
:101CC00013060500630CF51A8317C4000328840269
:101CD00093F74700638E070003274400832704031C
:101CE0003306E640638607008327C4033306F640C5
:101CF0008325C4019306000013850900E70008004E
:101D00001307F0FF8317C400631CE51283A60900C4
:101D10001307D0016362D718370740201307170055
:101D20003357D7001377170063080716832604017B
:101D300037F7FFFF1307F77F33F7E7002316E400B9
:101D4000232204002320D400139737016356070091
:101D500083A70900638807108325040323A0990043
:101D6000638A0510930704046386F5001385090050
:101D7000EFF05FA783244101232804028320C101DF
:101D8000032481018329C10013050000130101020E
:101D9000678000002328210103A90501630A0908BF
:101DA000232A910083A405001377370023A025017F
:101DB000B3842441930700006314070083A74501FF
:101DC0002324F400634890006F0040063309A90003
:101DD000635E9004832744028325C4019386040034
:101DE0001306090013850900E7800700B384A440A7
:101DF000E34EA0FC8357C4000329010193E70704C5
:101E00008320C1012316F4000324810183244101AE
:101E10008329C1001305F0FF130101026780000050
:101E200083A6C503E344D0E66FF05FF58324410148
:101E3000032901016FF09FF4032604056FF05FE9A9
:101E40008326040137F7FFFF1307F77F33F7E70017
:101E50002316E400232204002320D4001397370123
:101E6000E35C07EE832504032328A40423A0990040
:101E7000E39A05EE832441016FF05FF083A7090028
:101E8000E38407E4138737FE630C07009387A7FEFC
:101E9000638807008357C40093E707046FF05FF679
:101EA00023A09900832441016FF05FED130101FE2F
:101EB000232E110013070500630605008327450341
:101EC000638E07088396C5009307000063820604AB
:101ED00083A7450693F717006396070093F606203D
:101EE00063800604130507002324B100EFF05FD6DA
:101EF000832581009307050003A745061377170084
:101F00006318070003D7C50013770720630807028B
:101F10008320C101138507001301010267800000BF
:101F200003A585052326E1002324B100EFF0CFCEE1
:101F30000327C100832581006FF0DFFA2324A1006D
:101F400003A58505EFF0CFCE832781008320C10153
:101F50001385070013010102678000002326B100EA
:101F60002324A100EFE0DFE58325C10003278100E2
:101F70006FF05FF56306050C17F7FF0F0327C79196
:101F8000130101FE232E11009305050063060700CF
:101F900083274703638007068396C50093070000E5
:101FA0006382060483A7450693F71700639607002C
:101FB00093F60620638E0604130507002324B10060
:101FC000EFF01FC9832581009307050003A745068D
:101FD000137717006318070003D7C500137707208E
:101FE000630607048320C101138507001301010262
:101FF000678000002326A100130507002324E100C9
:10200000EFE01FDC8325C100032781006FF0DFF8BC
:1020100003A585052326E1002324B100EFF0CFBFFF
:102020000327C100832581006FF01FF92324A1003D
:1020300003A58505EFF0CFBF832781006FF09FFADE
:1020400017E6FF0F1306866F97050000938545E698
:1020500017E5FF0F1305856F6FE09FE593070000FD
:1020600013070000130101FFB387E740232291000B
:102070002326110093D42740638404022324810083
:102080001304C0FF3304F400832704009384F4FF97
:102090001304C4FFE7800700E39804FE03248100D3
:1020A0008320C100832441001301010167800000E7
:1020B000130101FD2324810217E4FF0F1304047EA2
:1020C0002322910293040500032504002320210309
:1020D000232E31012326B100232611021309060005
:1020E00093890600EFF04FB397E7FF0F83A7C7234D
:1020F0008325C1006384070803A747009306F00106
:102100000325040063C6E60893162700639C0402B7
:102110001307170023A2E700B387D70023A4B70053
:10212000EFF00FB1130500008320C10203248102E8
:1021300083244102032901028329C1011301010300
:1021400067800000B388D70023A4280903A8871854
:10215000130610003316E6003368C80023A40719DD
:1021600023A4381113082000E39404FB03A8C71824
:102170003366C80023A6C7186FF09FF997E7FF0FD3
:10218000938747FE17E7FF0F2320F71A6FF0DFF65C
:10219000EFF00FAA1305F0FF6FF01FF993089003FB
:1021A000730000006344050067800000130101FE16
:1021B000232E11002326A100EF0040198327C10020
:1021C0008320C101B307F0402320F5009307F0FFFF
:1021D0001385070013010102678000009308D005F2
:1021E00073000000634405006F000000130101FE4E
:1021F000232E11002326A100EF0040158327C100E4
:10220000B307F0402320F5006F0000009308E003BF
:10221000730000006344050067800000130101FEA5
:10222000232E11002326A100EF0040128327C100B6
:102230008320C101B307F0402320F5009307F0FF8E
:102240001385070013010102678000009308F00363
:10225000730000006344050067800000130101FE65
:10226000232E11002326A100EF00400E8327C1007A
:102270008320C101B307F0402320F5009307F0FF4E
:1022800013850700130101026780000097E6FF0F26
:102290009386C60983A70600130101FF23261100B8
:1022A00013070500639007029308600D13050000F3
:1022B000730000009307F0FF630CF502930705001D
:1022C00023A0A6003305F7009308600D73000000FB
:1022D00083A706003307F700631CE5008320C100D5
:1022E00023A0A600138507001301010167800000E9
:1022F000EF00C0058320C1009307C0002320F50034
:102300001305F0FF1301010167800000930800042A
:10231000730000006344050067800000130101FEA4
:10232000232E11002326A100EF0040028327C100C5
:102330008320C101B307F0402320F5009307F0FF8D
:1023400013850700130101026780000017E5FF0FE6
:0823500003258554678000009D
:1023580000000000000000003003001030030010EF
:102368003803001038030010400300104003001029
:1023780048030010480300105003001050030010D9
:102388005803001058030010600300106003001089
:102398006803001068030010700300107003001039
:1023A80078030010780300108003001080030010E9
:1023B8008803001088030010900300109003001099
:1023C8009803001098030010A0030010A003001049
:1023D800A8030010A8030010B0030010B0030010F9
:1023E800B8030010B8030010C0030010C0030010A9
:1023F800C8030010C8030010D0030010D003001059
:10240800D8030010D8030010E0030010E003001008
:10241800E8030010E8030010F0030010F0030010B8
:10242800F8030010F8030010000400100004001066
:102438000804001008040010100400101004001014
:1024480018040010180400102004001020040010C4
:102458002804001028040010300400103004001074
:102468003804001038040010400400104004001024
:1024780048040010480400105004001050040010D4
:102488005804001058040010600400106004001084
:102498006804001068040010700400107004001034
:1024A80078040010780400108004001080040010E4
:1024B8008804001088040010900400109004001094
:1024C8009804001098040010A0040010A004001044
:1024D800A8040010A8040010B0040010B0040010F4
:1024E800B8040010B8040010C0040010C0040010A4
:1024F800C8040010C8040010D0040010D004001054
:10250800D8040010D8040010E0040010E004001003
:10251800E8040010E8040010F0040010F0040010B3
:10252800F8040010F8040010000500100005001061
:10253800080500100805001010050010100500100F
:1025480018050010180500102005001020050010BF
:10255800280500102805001030050010300500106F
:10256800380500103805001040050010400500101F
:1025780048050010480500105005001050050010CF
:10258800580500105805001060050010600500107F
:10259800680500106805001070050010700500102F
:1025A80078050010780500108005001080050010DF
:1025B800880500108805001090050010900500108F
:1025C8009805001098050010A0050010A00500103F
:1025D800A8050010A8050010B0050010B0050010EF
:1025E800B8050010B8050010C0050010C00500109F
:1025F800C8050010C8050010D0050010D00500104F
:10260800D8050010D8050010E0050010E0050010FE
:10261800E8050010E8050010F0050010F0050010AE
:10262800F8050010F805001000060010000600105C
:10263800080600100806001010060010100600100A
:1026480018060010180600102006001020060010BA
:10265800280600102806001030060010300600106A
:10266800380600103806001040060010400600101A
:1026780048060010480600105006001050060010CA
:10268800580600105806001060060010600600107A
:10269800680600106806001070060010700600102A
:1026A80078060010780600108006001080060010DA
:1026B800880600108806001090060010900600108A
:1026C8009806001098060010A0060010A00600103A
:1026D800A8060010A8060010B0060010B0060010EA
:1026E800B8060010B8060010C0060010C00600109A
:1026F800C8060010C8060010D0060010D00600104A
:10270800D8060010D8060010E0060010E0060010F9
:10271800E8060010E8060010F0060010F0060010A9
:10272800F8060010F8060010000700100007001057
:102738000807001008070010100700101007001005
:1027480018070010180700102007001020070010B5
:1027580028070010280700100000000003000000F0
:1027680028000010000000000000000028000010F1
:1027780090000010F80000100000000000000000A9
:102788000000000000000000000000000000000041
:102798000000000000000000000000000000000031
:1027A8000000000000000000000000000000000021
:1027B8000000000000000000000000000000000011
:1027C8000000000000000000000000000000000001
:1027D80000000000000000000000000000000000F1
:1027E80000000000000000000000000000000000E1
:1027F80000000000000000000000000000000000D1
:1028080001000000000000000E33CDAB34126DE66D
:10281800ECDE05000B0000000000000000000000D6
:1028280000000000000000000000000000000000A0
:102838000000000000000000000000000000000090
:102848000000000000000000000000000000000080
:102858000000000000000000000000000000000070
:102868000000000000000000000000000000000060
:102878000000000000000000000000000000000050
:102888000000000000000000000000000000000040
:102898000000000000000000000000000000000030
:1028A8000000000000000000EFBEEDFEFFFFFFFF8C
:1028B80000000200480700101C0300100000000080
:0428C80010150000E7
:0400000300000054A5
:00000001FF
