:1000000017810010130101001305C010970500109F
:10001000938545FF170600101306C6FE63DCC50076
:100020008322050023A05500130545009385450054
:100030006FF0DFFE170500101305C5FC97050010D3
:10004000938545FC6358B500232005001305450042
:100050006FF05FFFEF0080006F000000130101FFF1
:100060002326110023248100130401011305A0009D
:10007000EF00C00193070500138507008320C1002E
:10008000032481001301010167800000130101FDB9
:10009000232611022324810213040103232EA4FC2E
:1000A000232204FE930710002326F4FE930710007A
:1000B0002324F4FE232004FE6F0000030327C4FE64
:1000C000832784FEB307F7002322F4FE8327C4FEB0
:1000D0002324F4FE832744FE2326F4FE832704FE14
:1000E000938717002320F4FE032704FE8327C4FD13
:1000F000E366F7FC832744FE138507008320C102D3
:0C0100000324810213010103678000004A
:00000001FF
