:020000041000EA
:10000000971100F09381810B130500006304050034
:100010007310750113050000170600E0130686FE35
:100020003306A64093050000EF10803F171500002F
:1000300013050537EF00000EEF10002E0325010019
:100040009305410013162500130646003306B6003B
:10005000EF0040076F00400D834780306392070434
:100060009307000063880702130101FF17250000B2
:10007000130545232326110097000000E700000028
:100080008320C100930710002304F0301301010105
:1000900067800000930710002304F03067800000A1
:1000A0006780000093070000638C07009305000041
:1000B000172500001305051F170300006700000047
:1000C00067800000130101FE232E1100232C810004
:1000D000130401021305A000EF00C00793070500F9
:1000E0002326F4FE8327C4FE130750042380E70071
:1000F0008327C4FE83C70700A305F4FE8347B4FE2D
:10010000138507008320C10103248101130101022B
:1001100067800000930505009306000013060000A9
:10012000130500006F10803D130101FF93050000CF
:10013000232481002326110013040500EF10804BB7
:100140008327803163840700E780070013050400DC
:10015000EF10907D93050500170500F00325457508
:100160006F00400193050500170500F00325457455
:100170006F108071130101FC232C8102232E1102C8
:100180009387B5001307600113040500636CF7083B
:100190009306000163EAB606EF009005930600019E
:1001A0001307800193082000130880343307E80008
:1001B00083274700130687FF638EC74403A74700C2
:1001C00003A6C70083A587001377C7FF3387E7001F
:1001D0008326470023A6C5002326F1002324B6006A
:1001E00093E61600130504002322D700EF00D00089
:1001F0008327C1008320C103032481031385870063
:1002000013010104678000009307C0002320F4005D
:10021000130500008320C10303248103130101049B
:100220006780000093F687FFE3C007FEE3EEB6FCAD
:100230002326D100EF00C07B8326C1009307701FE7
:1002400063F8D74C93D79600638A071613074000CC
:10025000636AF74293D7660093889703138E8703E8
:1002600013953800130880343305A8008327450010
:10027000130585FF6308F5021303F0006F004001CA
:1002800083A5C70063580634630EB5009387050045
:1002900003A747001377C7FF3306D740E352C3FED7
:1002A00093080E0083270801930E00356382D72F31
:1002B00003A747009305F0001377C7FF3306D74025
:1002C00063C2C548232AD8012328D80163580644AD
:1002D0001306F01F032348006366E634137687FF96
:1002E000130686003306C800832506001355570001
:1002F000130710003317A7003363E300130786FFCB
:1003000023A4B70023A6E700232268002320F600D9
:1003100023A6F50093D72840130510003315F500E8
:100320006366A30AB377650063940702131515008B
:1003300093F8C8FFB377650093884800639A070075
:1003400013151500B377650093884800E38A07FE0C
:10035000130EF000139F3800330FE80113030F0052
:100360000327C300938F08006300E334032647008C
:10037000930707000327C7001376C6FFB305D640CF
:100380006340BE34E3C205FE3386C70083264600C1
:1003900083A587001305040093E616002322D600E8
:1003A00023A6E5002324B7002326F100EF00C06454
:1003B0008327C100138587006FF0DFE51305002058
:1003C00093080004130EF0036FF0DFE98327880021
:1003D00003A747001373C7FF3306D3406366D300F8
:1003E00013270601630A071A83254031170600F018
:1003F0000326864B1307F0FFB385B6006308E64279
:10040000371700001307F700B385E50037F7FFFF44
:10041000B3F5E50013050400232E0101232CF100A0
:10042000232AD100232861002326B100EF001064A5
:100430001307F0FF8325C100032301018326410137
:10044000832781010328C101130E0500170F00F057
:10045000130F8F456306E534338767006360E53427
:10046000930E800103A60E003386C50023A0CE00A4
:10047000630AA74883280F001305F0FF6382A84A88
:100480003307EE403307C70023A0EE00137F7E0042
:10049000630E0F3A137E8EFFB7180000130E8E0006
:1004A000938888003306BE00B385E841B385C54014
:1004B0009395450193D54501130504002326D103E7
:1004C000232401032322F1022320D102232E6100E1
:1004D000232CC101232AE1012328C1002326B100D6
:1004E000EF00D058130705001305F0FF8325C10066
:1004F00003260101032F4101032E81010323C101C2
:10050000832601028327410203288102832EC10230
:10051000630EA74403A60E003307C7413307B70095
:10052000136717002324C8013386C5002322EE0079
:1005300023A0CE00638E07031305F0006376653EAB
:1005400083A54700130743FF137787FF93F5150033
:10055000B3E5E50023A2B70093085000B385E70098
:1005600023A2150123A41501636AE54003274E0069
:100570008327003163F4C7002328C0308327C030AD
:1005800063F4C7002326C03093070E006F00C0211C
:10059000032348006FF01FD813E7160023A2E700DB
:1005A000B386D700136616002324D8001305040071
:1005B00023A2C6002326F100EF0000448327C100D8
:1005C0008320C103032481031385870013010104E1
:1005D0006780000003A687003387E7008326470073
:1005E0002326B6002326F10093E6160023A4C500B7
:1005F000130504002322D700EF0000408327C10029
:100600008320C103032481031385870013010104A0
:10061000678000008327C70093882800E304F7C899
:100620006FF0DFB9135697009305400063FEC514C1
:100630009305400163E2C5281305C605131535006F
:100640009305B6053305A80003260500130585FFAD
:100650006318C5006F00001E032686006308C500EE
:100660008325460093F5C5FFE368B7FE0325C60062
:1006700023A6A70023A4C7002324F5002326F60001
:100680006FF05FC9130740016370F714130740054B
:100690006362F72493D7C6009388F706138EE706A4
:1006A000139538006FF01FBC938F1F0093F73F0026
:1006B00013038300638807120327C3006FF0DFCAA8
:1006C00003A5870093E8160023A217012326E5005F
:1006D0002324A700B386D700232AD8002328D800D4
:1006E00013E715003386C70023A6D60123A4D6013D
:1006F00023A2E600130504002320B6002326F10000
:10070000EF00802F8327C100138587006FF09FB013
:1007100093D83600138786006FF01FA93387E70050
:10072000832647002326F1001305040093E61600F4
:100730002322D700EF00402C8327C10013858700B8
:100740006FF05FAD93E5160023A2B700B386D70024
:10075000232AD8002328D800936516003387E700A2
:1007600023A6D60123A4D60123A2B60013050400B4
:100770002320C7002326F100EF0000288327C100B3
:10078000138587006FF01FA91356670013059603A2
:1007900013153500930586036FF0DFEA638A0715AA
:1007A0008327880003A747001377C7FF3306D74086
:1007B0006366D70013270601E30007DE1305040074
:1007C000EF0080236FF0DFA49388C705138EB70571
:1007D000139538006FF01FA983278F009388F8FFC7
:1007E0006394E72193F73800130F8FFFE39607FE1A
:1007F000032748009347F5FFB3F7E7002322F800EB
:10080000131515001307F5FFE372F7BC3377F500F6
:10081000631A0700131515003377F500938F4F0007
:10082000E30A07FE93880F006FF0DFB2938505019E
:100830006FF05FBE93D52540130710003317B70044
:100840003363E300232268006FF09FE23306BE00AB
:10085000B305C0409395450193D5450113050400A8
:100860002324D103232201032320F102232ED100CC
:10087000232C6100232AC1012326B1002328C100B3
:10088000EF00D01E130705001305F0FF8325C100FC
:10089000032E4101032381018326C1018327010225
:1008A00003284102832E8102E316A7C60327010114
:1008B000930500006FF01FC69305400563ECC50665
:1008C0001356C7001305F606131535009305E60603
:1008D0006FF05FD713074015636CF70693D7F600E8
:1008E00093888707138E7707139538006FF09F97CB
:1008F000930E800103A60E003386C50023A0CE0010
:100900006FF05FB713154501E31605B6032E880097
:10091000B305B30013E715002322EE006FF05FC5A7
:100920002320CF016FF09FB6930710002322FE0013
:100930006FF0DFE89305401563ECC5061356F7002A
:100940001305860713153500930576076FF09FCFC3
:1009500013074055636CF70693D726019388D70792
:10096000138EC707139538006FF0DF8F130F8FFFBB
:100970003307E601930500006FF0DFB99385870028
:1009800013050400232AD101232801012326D100C5
:10099000EF00906F03280101832E41018326C100DF
:1009A000032E880003A60E0003274E006FF05FBCE5
:1009B0009305405563E4C502135627011305D60776
:1009C000131535009305C6076FF0DFC71305803F89
:1009D0009308F007130EE0076FF0DF881305803FE0
:1009E0009305E0076FF01FC6832748006FF05FE1B3
:1009F000130500336F001021130500336F00102220
:100A000013060075971500009385451613050076AB
:100A10006F00004683254500130101FF2324810058
:100A20002326110093070004130405006384F500D6
:100A3000EF108013832584009307800A6386F500F6
:100A400013050400EF1040128325C4009307001122
:100A5000638CF50013050400032481008320C1008A
:100A6000130101016F1040108320C1000324810095
:100A7000130101016780000083A7450693F7170063
:100A80006398070083D7C50093F7072063860700A4
:100A9000130500006780000003A58505130101FF11
:100AA00023261100EF0010168320C100130500005B
:100AB000130101016780000083A7450693F7170023
:100AC0006398070083D7C50093F707206386070064
:100AD000130500006780000003A58505130101FFD1
:100AE00023261100EF0090138320C100130500009E
:100AF0001301010167800000130101FE9707000048
:100B0000938747F0232E1100232C8100232A910084
:100B10001304000423282101232631012324410149
:100B20001306800093050000232CF0301305C00944
:100B3000930740002326F40023200400232204000E
:100B4000232404002322040623280400232A04006B
:100B5000232C0400EF00D00C170A0000130ACA3C33
:100B60009709000093898942170900001309894AEF
:100B70009704000093844450130580092320440304
:100B8000232234032324240323269402232E8400C7
:100B9000EF005006B7070100938797001306800007
:100BA0009305000013054010232AF40623240406AD
:100BB00023260406232804062326040C232C0406DB
:100BC000232E040623200408EF0090059307800AD3
:100BD000130500102322F408232444092326340992
:100BE00023282409232A9408EF00D000B707020025
:100BF0009387270113068000930500001305C01694
:100C0000232EF40C2328040C232A040C232C040C7C
:100C1000232A04122320040E2322040E2324040E6C
:100C2000EF001000930700112328440F232A340FEC
:100C3000232C240F232E940E2326F40E032481014B
:100C40008320C10183244101032901018329C100BB
:100C5000032A810013058016130101026F008079B9
:100C6000130101FE232A9100930405001305C033EC
:100C7000232E1100232C8100EF00C07883278031C0
:100C800063840710130800759306F0FF832748005C
:100C90009387F7FF63C80708032488006F00C0002C
:100CA000130484066380D7080317C4009387F7FFF3
:100CB000E31807FEB707FFFF938717002326F4000A
:100CC0001305840523220406EF00C0721305C03308
:100CD000EF00C0741305C40523200400232404007E
:100CE0002322040023280400232A0400232C0400C8
:100CF0001306800093050000EF0080722328040291
:100D0000232A040223220404232404048320C1018F
:100D1000130504000324810183244101130101020E
:100D20006780000003240800630604001308040021
:100D30006FF0DFF59305C01A138504002326010127
:100D4000EFF04FC30328C10013040500630205043C
:100D5000930740002322F5001305C500232004005B
:100D60002324A4001306001A930500002326010182
:100D7000EF00006B0328C1009306F0FF23208800DA
:100D8000130804006FF09FF0EFF01FD76FF09FEF94
:100D9000232008001305C033EF0040689307C0000C
:100DA00023A0F4006FF09FF6130101FF23248100BC
:100DB000130405001305C03323261100EF008064DF
:100DC00083274403639C07008327803117070000B3
:100DD000130787C4232AE402638C070003248100DD
:100DE0008320C1001305C033130101016F000063AC
:100DF000EFF09FD0032481008320C1001305C0338E
:100E0000130101016F0080611305C0336F00805F23
:100E10001305C0336F008060130101FF1305C03359
:100E200023261100EF00005E8320C1001306007529
:100E300097050000938585C4130500001301010187
:100E40006F000003130101FF1306007597050000F2
:100E50009385C5C61305000023261100EF0040014D
:100E60008320C1001305C033130101016F00005B33
:100E7000130101FD23202103232E3101232C4101E5
:100E8000232A5101232861012326710123261102FF
:100E90002324810223229102930A0600130B0500EA
:100EA000938B0500130A0000930910001309F0FF4B
:100EB00083A44A009384F4FF63CA040203A48A0053
:100EC0008357C40063FEF9008317E4009305040010
:100ED00013050B0063862701E7800B00336AAA0025
:100EE0009384F4FF13048406E39C24FD83AA0A0080
:100EF000E3900AFC8320C10203248102832441027F
:100F0000032901028329C101832A4101032B010125
:100F1000832BC10013050A00032A81011301010379
:100F200067800000130101FF232481001384050062
:100F30008395E50023261100EF00802D6340050214
:100F4000832704058320C100B387A7002328F40466
:100F50000324810013010101678000008357C4004E
:100F600037F7FFFF1307F7FFB3F7E7008320C10050
:100F70002316F4000324810013010101678000009F
:100F800013050000678000008397C500130101FE70
:100F900013830600232E110093F607101387050014
:100FA000930806001308050063980602B7F6FFFFD2
:100FB0009386F6FF8320C101B3F7D7008315E700BE
:100FC0002316F70093060300138608001305080094
:100FD000130101026F00802E8395E5002324C100D8
:100FE0009306200013060000232661002320E10061
:100FF0002322A100EF00001C032701000323C100EE
:10100000832881008317C700032841006FF01FFA6F
:10101000130101FF23248100138405008395E5005B
:1010200023261100EF0000191307F0FF8317C400F7
:101030006302E50237170000B3E7E7008320C10031
:101040002328A4042316F4000324810013010101C2
:10105000678000001307058013070780B3F7E700D8
:101060008320C1002316F400032481001301010131
:10107000678000008395E5006F004000130101FFC9
:10108000232481001304050013850500232E00305E
:1010900023261100EF1040059307F0FF630AF500C7
:1010A0008320C10003248100130101016780000037
:1010B0008327C031E38607FE8320C1002320F4008C
:1010C00003248100130101016780000097F7FFEFFF
:1010D00083A7077E638EA70C83254504130101FEB9
:1010E000232A9100232E1100232C81009304050054
:1010F00063880504232821012326310113090000F8
:1011000093090008B387250103A40700630E0400B8
:10111000930504000324040013850400EF00C07647
:10112000E31804FE83A5440413094900E31C39FDB8
:1011300013850400EF004075032901018329C100D4
:1011400083A584036386050013850400EF00C07344
:1011500003A40404630C04009305040003240400A6
:1011600013850400EF004072E31804FE83A5C40455
:101170006386050013850400EF00007183A7440314
:10118000638E0700032481018320C10113850400BD
:101190008324410113010102678007008320C101FC
:1011A00003248101832441011301010267800000AF
:1011B0006780000093870500130101FF232481004D
:1011C0009305060013040500138606001385070027
:1011D00023261100232E0030EF0010789307F0FF34
:1011E000630AF5008320C10003248100130101017B
:1011F000678000008327C031E38607FE8320C1009B
:101200002320F40003248100130101016780000002
:1012100093870500130101FF232481009305060035
:10122000130405001386060013850700232611000A
:10123000232E0030EF0050769307F0FF630AF5008D
:101240008320C10003248100130101016780000095
:101250008327C031E38607FE8320C1002320F400EA
:10126000032481001301010167800000130101FFC5
:10127000232481001304050013850500232E00306C
:1012800023261100EF0050759307F0FF630AF50065
:101290008320C10003248100130101016780000045
:1012A0008327C031E38607FE8320C1002320F4009A
:1012B000032481001301010167800000938705006A
:1012C000130101FF23248100930506001304050088
:1012D000138606001385070023261100232E0030F5
:1012E000EF0050779307F0FF630AF5008320C100F9
:1012F0000324810013010101678000008327C031AE
:10130000E38607FE8320C1002320F400032481002C
:101310001301010167800000130101FF23248100F4
:10132000232021012326110023229100130900000C
:1013300013040000630289023309894013592940CC
:1013400093040000832704009384140013044400D2
:10135000E7800700E3E824FF1309000013040000FE
:10136000630289023309894013592940930400001C
:10137000832704009384140013044400E7800700CB
:10138000E3E824FF8320C10003248100832441007B
:101390000329010013010101678000009307000089
:1013A00013070000130101FFB387E74023229100D8
:1013B0002326110093D42740638404022324810050
:1013C0001304C0FF3304F400832704009384F4FF64
:1013D0001304C4FFE7800700E39804FE03248100A0
:1013E0008320C100832441001301010167800000B4
:1013F0006780000067800000678000006780000051
:1014000067800000678000001305100067800000FF
:1014100013051000678000006780000067800000EF
:101420001303F00013070500637EC3029377F700F0
:101430006390070A63920508937606FF1376F60019
:10144000B386E6002320B7002322B7002324B70089
:101450002326B70013070701E366D7FE63140600CF
:1014600067800000B306C3409396260097020000F1
:10147000B38656006780C6002307B700A306B700EF
:101480002306B700A305B7002305B700A304B700E0
:101490002304B700A303B7002303B700A302B700D8
:1014A0002302B700A301B7002301B700A300B700D0
:1014B0002300B7006780000093F5F50F9396850031
:1014C000B3E5D50093960501B3E5D5006FF0DFF6DF
:1014D0009396270097020000B3865600938200007F
:1014E000E78006FA93800200938707FF3307F740EF
:1014F0003306F600E378C3F66FF0DFF3130101FD66
:101500002324810217F4FFEF1304C43A232291022B
:10151000930405000325040023202103232E310119
:101520002326B10023261102130906009389060021
:10153000EFF05FED832700348325C1006384070843
:1015400003A747009306F0010325040063C2E608E1
:1015500093162700639C04021307170023A2E700D9
:10156000B387D70023A4B700EFF05FEB13050000AB
:101570008320C10203248102832441020329010242
:101580008329C1011301010367800000B388D700DC
:1015900023A4280903A88718130610003316E600B1
:1015A0003368C80023A4071923A4381113082000A6
:1015B000E39404FB03A8C7183366C80023A6C71822
:1015C0006FF09FF9930780172320F0346FF05FF7D7
:1015D000EFF0DFE41305F0FF6FF09FF993070000D1
:1015E0006388070017050000130585DB6FE09FB2D5
:1015F00067800000130101FD2326710197FBFFEFB7
:10160000938B4B2B23286101130B050003A50B00C3
:10161000232C4101130A00342320210323248101B8
:1016200023261102138C0500EFF0DFDD03290A00E9
:10163000630C0908232E3101232A5101232481023E
:1016400023229102232291019309F0FF930A1000B3
:10165000832449001384F4FF634E0404939424000C
:10166000B304990063140C088327490083A644003F
:101670009387F7FF6388870C23A204006386060222
:101680008327891833978A00832C4900B377F700A2
:1016900063920708E78006000327490083270A00B2
:1016A000631C9709639A27091304F4FF9384C4FF0A
:1016B000E31A34FB03248102832441028329C101FC
:1016C000832A4101832C410003A50B008320C10222
:1016D00003290102032A8101032B0101832BC1008D
:1016E000032C8100130101036FF05FD383A7441023
:1016F0001307F4FFE30AFCF61304E4FFE30C37FBE3
:1017000083A7041063848705938484FFE31034FF68
:101710006FF05FFA8327C91883A544083377F70071
:10172000631C070213050B00E7800600032749002E
:1017300083270A00E30897F7E38E07F6138907006B
:101740006FF01FF1232289006FF05FF3130407008D
:101750009384C4FF6FF05FF113850500E7800600F6
:101760006FF09FF3130101FE232C8100232A9100C7
:10177000232821012326310113840500232E110083
:101780001309050093098034EFF08FA683A7890021
:101790003717000083A4470093F4C4FF9387F47FB6
:1017A0009387077F338487401354C4001304F4FFE6
:1017B0001314C400634EE4009305000013050900F0
:1017C000EFF0DFAA83A78900B38797006306F502CD
:1017D00013050900EFF04FA28320C101032481010A
:1017E00083244101032901018329C100130500005D
:1017F0001301010267800000B30580401305090052
:10180000EFF0DFA69307F0FF6304F50403A7890058
:1018100083278001B384844093E41400232297003B
:1018200013050900B3878740232CF000EFF0CF9C0D
:101830008320C10103248101832441010329010183
:101840008329C10013051000130101026780000005
:101850009305000013050900EFF05FA103A78900BD
:101860009306F000B307E540E3D4F6F697F6FFEFF2
:1018700083A6860393E717002322F7003305D5409C
:10188000232CA0006FF0DFF4638E0510130101FE1E
:10189000232C81002326B10013040500232E110000
:1018A000EFF00F958325C1009308803403A88800CA
:1018B00003A5C5FF138785FF9377E5FF3306F70080
:1018C000832646001373150093F6C6FF6304C818F9
:1018D0002322D6003308D6000328480013781800C6
:1018E0006318030803A385FF13050035330767401A
:1018F00083258700B38767006388A5120323C70089
:1019000023A665002324B300630C081893E6170090
:101910002322D7002320F6009306F01F63E0F60A87
:1019200093F687FF9386860083A54800B386D80088
:1019300003A6060013D5570093071000B397A7001E
:10194000B3E7B700938586FF2324C7002326B7009B
:1019500023A2F80023A0E6002326E60013050400D6
:10196000032481018320C101130101026FF0CF889C
:10197000631C0802B387D700130500358326860051
:1019800013E81700B305F7006382A6160326C60006
:1019900023A6C6002324D6002322070123A0F50096
:1019A0006FF09FF7678000001365150023AEA5FE5A
:1019B0002320F6009306F01FE3F4F6F693D6970083
:1019C000130640006362D60E93D667009385960394
:1019D0009395350013868603B385B80083A605006A
:1019E000938585FF6398D5006F00001283A686005B
:1019F0006388D50003A646001376C6FFE3E8C7FE5A
:101A000083A5C6002326B7002324D70013050400AE
:101A1000032481018320C10123A4E50023A6E6005D
:101A2000130101026FE05FFD6312080A8325C600FF
:101A300003268600B386F60093E716002326B60039
:101A400023A4C5002322F7003307D7002320D700A3
:101A50006FF0DFF0B386D7006310030283A785FF22
:101A60003307F74003268700B386F6008327C700B5
:101A70002326F60023A4C70013E6160097F7FFEF0E
:101A800083A7C7E22322C70023A4E800E3E8F6EC1B
:101A90008325403113050400EFF0DFCC6FF01FEC1D
:101AA000B387D7006FF09FED130640016378D6022D
:101AB000130640056368D60693D6C7009385F606DD
:101AC000939535001386E6066FF01FF193E6170035
:101AD0002322D7002320F6006FF05FE89385C60528
:101AE000939535001386B6056FF01FEF23AAE80023
:101AF00023A8E8002326A7002324A7002322070108
:101B000023A0F5006FF09FE503A54800135626407B
:101B100093071000B397C700B3E7A70023A2F8000C
:101B20006FF05FEE13064015636CD60093D6F70096
:101B30009385860793953500138676076FF0DFE966
:101B400013064055636CD60093D627019385D607BC
:101B5000939535001386C6076FF01FE89305803F05
:101B60001306E0076FF05FE7130101FF2326110062
:101B7000232021016382050E23248100232291006A
:101B800013840500930405006306050083274503BD
:101B900063800710832744060317C40093F71700D8
:101BA0006396070A137707206308070E930504005E
:101BB00013850400EF0000138327C40213090500F6
:101BC000638A07008325C40113850400E7800700AA
:101BD0006340050A8357C40093F707086392070A16
:101BE00083250403638C0500930704046386F500D2
:101BF00013850400EFF05FC9232804028325440401
:101C00006388050013850400EFF01FC82322040435
:101C1000EFF08F9F832744062316040093F71700E5
:101C20006384070A03258405EFF04FFDEFF04F9E14
:101C30008320C1000324810083244100130509008F
:101C4000032901001301010167800000E31007F67A
:101C500003248100832441008320C1001309000074
:101C60001305090003290100130101016780000029
:101C70008357C4001309F0FF93F70708E38207F6C0
:101C80008325040113850400EFF01FC06FF05FF59A
:101C9000EFF08F916FF01FF003258405EFF08FF6C2
:101CA0008317C400E39407F08327440693F71700D3
:101CB000E39007FA03258405EFF04FF60324810033
:101CC000832441006FF05FF903258405EFF00FF5E1
:101CD0006FF05FF59305050017F5FFEF032545BD90
:101CE0006FF09FE80397C500130101FE232C8100CC
:101CF00023263101232E11009377870013840500DA
:101D00009309050063920712B717000093870780B5
:101D100083A64500B367F7002396F500635CD018EF
:101D2000032884026306080E232A910093163701C4
:101D300083A4090023A0090063CA06188325C401EF
:101D4000130600009306100013850900E700080041
:101D50009307F0FF13060500630CF51A8317C40000
:101D60000328840293F74700638E0700032744008B
:101D7000832704033306E640638607008327C403F2
:101D80003306F6408325C40193060000138509003D
:101D9000E70008001307F0FF8317C400631CE51277
:101DA00083A609001307D0016362D71837074020C4
:101DB000130717003357D700137717006308071668
:101DC0008326040137F7FFFF1307F77F33F7E70098
:101DD0002316E400232204002320D40013973701A4
:101DE0006356070083A7090063880710832504034F
:101DF00023A09900638A0510930704046386F50005
:101E000013850900EFF05FA8832441012328040211
:101E10008320C101032481018329C100130500002F
:101E200013010102678000002328210103A9050195
:101E3000630A0908232A910083A405001377370059
:101E400023A02501B38424419307000063140700F5
:101E500083A745012324F400634890006F004006E7
:101E60003309A900635E9004832744028325C401DB
:101E7000938604001306090013850900E780070014
:101E8000B384A440E34EA0FC8357C400032901019E
:101E900093E707048320C1012316F4000324810182
:101EA000832441018329C1001305F0FF13010102BE
:101EB0006780000083A6C503E344D0E66FF05FF5BA
:101EC00083244101032901016FF09FF403260405D7
:101ED0006FF05FE98326040137F7FFFF1307F77FF1
:101EE00033F7E7002316E400232204002320D40064
:101EF00013973701E35C07EE832504032328A4042A
:101F000023A09900E39A05EE832441016FF05FF06E
:101F100083A70900E38407E4138737FE630C0700F7
:101F20009387A7FE638807008357C40093E70704DD
:101F30006FF05FF623A09900832441016FF05FEDFD
:101F4000130101FE232E110013070500630605008F
:101F500083274503638E07088396C5009307000017
:101F60006382060483A7450693F71700639607006C
:101F700093F6062063800604130507002324B100AE
:101F8000EFF05FD6832581009307050003A7450680
:101F9000137717006318070003D7C50013770720CE
:101FA000630807028320C1011385070013010102A2
:101FB0006780000003A585052326E1002324B100E6
:101FC000EFF04FC40327C100832581006FF0DFFAD3
:101FD0002324A10003A58505EFF04FC483278100CA
:101FE0008320C101138507001301010267800000EF
:101FF0002326B1002324A100EFE01FDB8325C100CD
:10200000032781006FF05FF56306050C17F7FFEFFC
:102010000327078A130101FE232E110093050500F3
:102020006306070083274703638007068396C5007E
:10203000930700006382060483A7450693F7170001
:102040006396070093F60620638E060413050700C7
:102050002324B100EFF01FC98325810093070500F9
:1020600003A74506137717006318070003D7C500B9
:1020700013770720630607048320C1011385070037
:1020800013010102678000002326A1001305070049
:102090002324E100EFE05FD18325C1000327810005
:1020A0006FF0DFF803A585052326E1002324B100A6
:1020B000EFF04FB50327C100832581006FF01FF9B2
:1020C0002324A10003A58505EFF04FB583278100E8
:1020D0006FF09FFA1306007597050000938585E65B
:1020E000130500766FE0DFD89308900373000000BB
:1020F0006344050067800000130101FE232E1100D8
:102100002326A100EF0000198327C1008320C1010D
:10211000B307F0402320F5009307F0FF1385070075
:1021200013010102678000009308D00573000000CE
:10213000634405006F000000130101FE232E11000F
:102140002326A100EF0000158327C100B307F0404C
:102150002320F5006F0000009308E00373000000E7
:102160006344050067800000130101FE232E110067
:102170002326A100EF0000128327C1008320C101A4
:10218000B307F0402320F5009307F0FF1385070005
:1021900013010102678000009308F0037300000040
:1021A0006344050067800000130101FE232E110027
:1021B0002326A100EF00000E8327C1008320C10168
:1021C000B307F0402320F5009307F0FF13850700C5
:1021D00013010102678000009306403483A70600C4
:1021E000130101FF23261100130705006390070266
:1021F0009308600D13050000730000009307F0FFC3
:10220000630CF5029307050023A0A6003305F70031
:102210009308600D7300000083A706003307F700E2
:10222000631CE5008320C10023A0A60013850700DE
:102230001301010167800000EF00C0058320C10089
:102240009307C0002320F5001305F0FF13010101DF
:1022500067800000930800047300000063440500D9
:1022600067800000130101FE232E11002326A10028
:10227000EF0040028327C1008320C101B307F04073
:102280002320F5009307F0FF1385070013010102D7
:102290006780000017E5FFEF032585616780000078
:0422A000000000003A
:1022A4000000000000000000480300004803000094
:1022B40050030000500300005803000058030000BE
:1022C400600300006003000068030000680300006E
:1022D400700300007003000078030000780300001E
:1022E40080030000800300008803000088030000CE
:1022F400900300009003000098030000980300007E
:10230400A0030000A0030000A8030000A80300002D
:10231400B0030000B0030000B8030000B8030000DD
:10232400C0030000C0030000C8030000C80300008D
:10233400D0030000D0030000D8030000D80300003D
:10234400E0030000E0030000E8030000E8030000ED
:10235400F0030000F0030000F8030000F80300009D
:102364000004000000040000080400000804000049
:1023740010040000100400001804000018040000F9
:1023840020040000200400002804000028040000A9
:102394003004000030040000380400003804000059
:1023A4004004000040040000480400004804000009
:1023B40050040000500400005804000058040000B9
:1023C4006004000060040000680400006804000069
:1023D4007004000070040000780400007804000019
:1023E40080040000800400008804000088040000C9
:1023F4009004000090040000980400009804000079
:10240400A0040000A0040000A8040000A804000028
:10241400B0040000B0040000B8040000B8040000D8
:10242400C0040000C0040000C8040000C804000088
:10243400D0040000D0040000D8040000D804000038
:10244400E0040000E0040000E8040000E8040000E8
:10245400F0040000F0040000F8040000F804000098
:102464000005000000050000080500000805000044
:1024740010050000100500001805000018050000F4
:1024840020050000200500002805000028050000A4
:102494003005000030050000380500003805000054
:1024A4004005000040050000480500004805000004
:1024B40050050000500500005805000058050000B4
:1024C4006005000060050000680500006805000064
:1024D4007005000070050000780500007805000014
:1024E40080050000800500008805000088050000C4
:1024F4009005000090050000980500009805000074
:10250400A0050000A0050000A8050000A805000023
:10251400B0050000B0050000B8050000B8050000D3
:10252400C0050000C0050000C8050000C805000083
:10253400D0050000D0050000D8050000D805000033
:10254400E0050000E0050000E8050000E8050000E3
:10255400F0050000F0050000F8050000F805000093
:10256400000600000006000008060000080600003F
:1025740010060000100600001806000018060000EF
:10258400200600002006000028060000280600009F
:10259400300600003006000038060000380600004F
:1025A40040060000400600004806000048060000FF
:1025B40050060000500600005806000058060000AF
:1025C400600600006006000068060000680600005F
:1025D400700600007006000078060000780600000F
:1025E40080060000800600008806000088060000BF
:1025F400900600009006000098060000980600006F
:10260400A0060000A0060000A8060000A80600001E
:10261400B0060000B0060000B8060000B8060000CE
:10262400C0060000C0060000C8060000C80600007E
:10263400D0060000D0060000D8060000D80600002E
:10264400E0060000E0060000E8060000E8060000DE
:10265400F0060000F0060000F8060000F80600008E
:10266400000700000007000008070000080700003A
:1026740010070000100700001807000018070000EA
:10268400200700002007000028070000280700009A
:10269400300700003007000038070000380700004A
:1026A4004007000040070000000000000300000095
:1026B4004000000000000000000000004000000096
:1026C400A80000001001000000000000000000004D
:1026D40000000000000000000000000000000000F6
:1026E40000000000000000000000000000000000E6
:1026F40000000000000000000000000000000000D6
:1027040000000000000000000000000000000000C5
:1027140000000000000000000000000000000000B5
:1027240000000000000000000000000000000000A5
:102734000000000000000000000000000000000095
:102744000000000000000000000000000000000085
:1027540001000000000000000E33CDAB34126DE622
:10276400ECDE05000B00000000000000000000008B
:102774000000000000000000000000000000000055
:102784000000000000000000000000000000000045
:102794000000000000000000000000000000000035
:1027A4000000000000000000000000000000000025
:1027B4000000000000000000000000000000000015
:1027C4000000000000000000000000000000000005
:1027D40000000000000000000000000000000000F5
:1027E40000000000000000000000000000000000E5
:1027F400000000000000000000000000FFFFFFFFD9
:102804000000020060070000380300000000000020
:042814005800001058
:04281800A400001008
:04281C00DC150010B7
:0400000510000000E7
:00000001FF
