:020000041000EA
:10000000130101FE232E1100232C81001304010291
:100010001305A000EF00400C930705002326F4FE13
:10002000130750048327C4FE2380E7008327C4FE00
:1000300083C70700A305F4FE8347B4FE13850700BA
:100040008320C101032481011301010267800000A4
:10005000178100F0130101FB172500001305151E81
:1000600093050033171600F01306468363DCC500C2
:100070008322050023A05500130545009385450004
:100080006FF0DFFE130500009305002F6358B500E5
:1000900023200500130545006FF05FFFEF100020DF
:1000A000EFF01FF6EF0080006F000000130101FF6A
:1000B000930500002324810023261100130405006A
:1000C000EF1040388327C02F63840700E7800700C4
:1000D00013050400EF10D07E93050500170500F00E
:1000E0000325457B6F00400193050500170500F0CF
:1000F0000325457A6F10805F130101FC232C8102D8
:10010000232E11029387B500130760011304050025
:10011000636CF7089306000163EAB606EF009005EA
:100120009306000113078001930820001308003391
:100130003307E80083274700130687FF638EC74411
:1001400003A7470003A6C70083A587001377C7FF4F
:100150003387E7008326470023A6C5002326F10046
:100160002324B60093E61600130504002322D700CB
:10017000EF00D0008327C1008320C1030324810343
:100180001385870013010104678000009307C000F6
:100190002320F400130500008320C10303248103FE
:1001A000130101046780000093F687FFE3C007FE98
:1001B000E3EEB6FC2326D100EF00C07B8326C1000E
:1001C0009307701F63F8D74C93D79600638A07167E
:1001D00013074000636AF74293D76600938897033A
:1001E000138E870313953800130800333305A800D6
:1001F00083274500130585FF6308F5021303F0000C
:100200006F00400183A5C70063580634630EB50034
:100210009387050003A747001377C7FF3306D7402E
:10022000E352C3FE93080E0083270801930E803328
:100230006382D72F03A747009305F0001377C7FF0A
:100240003306D74063C2C548232AD8012328D801E2
:10025000635806441306F01F032348006366E63420
:10026000137687FF130686003306C8008325060031
:1002700013555700130710003317A7003363E3002B
:10028000130786FF23A4B70023A6E70023226800F4
:100290002320F60023A6F50093D72840130510006D
:1002A0003315F5006366A30AB3776500639407020C
:1002B0001315150093F8C8FFB377650093884800BD
:1002C000639A070013151500B377650093884800FB
:1002D000E38A07FE130EF000139F3800330FE80186
:1002E00013030F000327C300938F08006300E33458
:1002F00003264700930707000327C7001376C6FFAE
:10030000B305D6406340BE34E3C205FE3386C70062
:100310008326460083A587001305040093E6160094
:100320002322D60023A6E5002324B7002326F100CC
:10033000EF00C0648327C100138587006FF0DFE5FD
:100340001305002093080004130EF0036FF0DFE99B
:100350008327880003A747001373C7FF3306D340E2
:100360006366D30013270601630A071A8325802FCB
:10037000170600F0032686511307F0FFB385B60079
:100380006308E642371700001307F700B385E5005E
:1003900037F7FFFFB3F5E50013050400232E010135
:1003A000232CF100232AD100232861002326B10049
:1003B000EF0010641307F0FF8325C1000323010140
:1003C00083264101832781010328C101130E050003
:1003D000170F00F0130F8F4B6306E5343387670068
:1003E0006360E534930E000003A60E003386C5005B
:1003F00023A0CE00630AA74883280F001305F0FF4F
:100400006382A84A3307EE403307C70023A0EE00FB
:10041000137F7E00630E0F3A137E8EFFB718000025
:10042000130E8E00938888003306BE00B385E84122
:10043000B385C5409395450193D545011305040047
:100440002326D103232401032322F1022320D102F6
:10045000232E6100232CC101232AE1012328C1009E
:100460002326B100EF00D058130705001305F0FF55
:100470008325C10003260101032F4101032E8101C1
:100480000323C1018326010283274102032881023D
:10049000832EC102630EA74403A60E003307C74193
:1004A0003307B700136717002324C8013386C5003C
:1004B0002322EE0023A0CE00638E07031305F00075
:1004C0006376653E83A54700130743FF137787FFD5
:1004D00093F51500B3E5E50023A2B700930850009B
:1004E000B385E70023A2150123A41501636AE54043
:1004F00003274E008327402F63F4C700232AC02E12
:100500008327002F63F4C7002328C02E93070E0013
:100510006F00C021032348006FF01FD813E71600B7
:1005200023A2E700B386D700136616002324D80061
:100530001305040023A2C6002326F100EF000044A7
:100540008327C1008320C10303248103138587000F
:10055000130101046780000003A687003387E700CA
:10056000832647002326B6002326F10093E61600D3
:1005700023A4C500130504002322D700EF00004088
:100580008327C1008320C1030324810313858700CF
:1005900013010104678000008327C70093882800A7
:1005A000E304F7C86FF0DFB91356970093054000D6
:1005B00063FEC5149305400163E2C5281305C60513
:1005C000131535009305B6053305A800032605006D
:1005D000130585FF6318C5006F00001E0326860003
:1005E0006308C5008325460093F5C5FFE368B7FEA1
:1005F0000325C60023A6A70023A4C7002324F500D3
:100600002326F6006FF05FC9130740016370F714EB
:10061000130740056362F72493D7C6009388F70653
:10062000138EE706139538006FF01FBC938F1F00E1
:1006300093F73F0013038300638807120327C30067
:100640006FF0DFCA03A5870093E8160023A2170105
:100650002326E5002324A700B386D700232AD80049
:100660002328D80013E715003386C70023A6D60138
:1006700023A4D60123A2E600130504002320B6001C
:100680002326F100EF00802F8327C1001385870008
:100690006FF09FB093D83600138786006FF01FA9C4
:1006A0003387E700832647002326F1001305040063
:1006B00093E616002322D700EF00402C8327C100C9
:1006C000138587006FF05FAD93E5160023A2B70096
:1006D000B386D700232AD8002328D80093651600B4
:1006E0003387E70023A6D60123A4D60123A2B600B0
:1006F000130504002320C7002326F100EF00002883
:100700008327C100138587006FF01FA91356670068
:100710001305960313153500930586036FF0DFEA82
:10072000638A07158327880003A747001377C7FF4D
:100730003306D7406366D70013270601E30007DEC0
:1007400013050400EF0080236FF0DFA49388C70532
:10075000138EB705139538006FF01FA983278F00FC
:100760009388F8FF6394E72193F73800130F8FFF06
:10077000E39607FE032748009347F5FFB3F7E7002A
:100780002322F800131515001307F5FFE372F7BCD9
:100790003377F500631A0700131515003377F5005A
:1007A000938F4F00E30A07FE93880F006FF0DFB2CC
:1007B000938505016FF05FBE93D5254013071000A8
:1007C0003317B7003363E300232268006FF09FE222
:1007D0003306BE00B305C0409395450193D545014E
:1007E000130504002324D103232201032320F10253
:1007F000232ED100232C6100232AC1012326B1001E
:100800002328C100EF00D01E130705001305F0FFD9
:100810008325C100032E4101032381018326C101E9
:100820008327010203284102832E8102E316A7C613
:1008300003270101930500006FF01FC693054005D3
:1008400063ECC5061356C7001305F60613153500ED
:100850009305E6066FF05FD713074015636CF70644
:1008600093D7F60093888707138E77071395380080
:100870006FF09F97930E000003A60E003386C5000D
:1008800023A0CE006FF05FB713154501E31605B640
:10089000032E8800B305B30013E715002322EE00F2
:1008A0006FF05FC52320CF016FF09FB69307100054
:1008B0002322FE006FF0DFE89305401563ECC506C8
:1008C0001356F700130586071315350093057607B1
:1008D0006FF09FCF13074055636CF70693D726013F
:1008E0009388D707138EC707139538006FF0DF8FF3
:1008F000130F8FFF3307E601930500006FF0DFB998
:100900009385870013050400232AD10123280101C0
:100910002326D100EF00905D03280101832E4101C1
:100920008326C100032E880003A60E0003274E0075
:100930006FF05FBC9305405563E4C5021356270171
:100940001305D607131535009305C6076FF0DFC7EB
:100950001305803F9308F007130EE0076FF0DF8860
:100960001305803F9305E0076FF01FC683274800FB
:100970006FF05FE1130540316F00D01B130540316C
:100980006F00D01C130680739715000093854504F3
:10099000130580746F00004683254500130101FF95
:1009A00023248100232611009307800213040500ED
:1009B0006384F500EF10800183258400930700090C
:1009C0006386F50013050400EF1040008325C40082
:1009D0009307800F638CF500130504000324810046
:1009E0008320C100130101016F00507E8320C100EC
:1009F00003248100130101016780000083A74506DD
:100A000093F717006398070083D7C50093F7072073
:100A100063860700130500006780000003A58505B5
:100A2000130101FF23261100EF00D0108320C10025
:100A300013050000130101016780000083A745062C
:100A400093F717006398070083D7C50093F7072033
:100A500063860700130500006780000003A5850575
:100A6000130101FF23261100EF00500E8320C10067
:100A7000130500001301010167800000130101FE4E
:100A800097070000938747F0232E1100232C810045
:100A9000232A9100130480022328210123263101F7
:100AA000232441011306800093050000232EF02E1D
:100AB00013054008930740002326F4002320040078
:100AC00023220400232404002322040623280400F4
:100AD000232A0400232C0400EF009007170A0000CB
:100AE000130ACA3C9709000093898942170900003C
:100AF0001309894A970400009384445013050008A1
:100B00002320440323223403232424032326940292
:100B1000232E8400EF001001B70701009387970090
:100B200013068000930500001305C00E232AF40667
:100B30002324040623260406232804062326040C63
:100B4000232C0406232E040623200408EF00500063
:100B5000930700091305800E2322F4082324440977
:100B60002326340923282409232A9408EF00807BB4
:100B7000B707020093872701130680009305000042
:100B800013054015232EF40C2328040C232A040CEF
:100B9000232C040C232A04122320040E2322040EE7
:100BA0002324040EEF00C07A9307800F2328440FFC
:100BB000232A340F232C240F232E940E2326F40EE5
:100BC000032481018320C101832441010329010100
:100BD0008329C100032A81001305001513010102B6
:100BE0006F004074130101FE232A91009304050055
:100BF00013050032232E1100232C8100EF00807397
:100C00008327C02F63840710130880739306F0FFB7
:100C1000832748009387F7FF63C8070803248800E9
:100C20006F00C000130484066380D7080317C40054
:100C30009387F7FFE31807FEB707FFFF93871700B7
:100C40002326F4001305840523220406EF00806D9B
:100C500013050032EF00806F1305C4052320040044
:100C6000232404002322040023280400232A040050
:100C7000232C04001306800093050000EF00406D54
:100C800023280402232A0402232204042324040424
:100C90008320C10113050400032481018324410141
:100CA00013010102678000000324080063060400AA
:100CB000130804006FF0DFF59305C01A13850400D4
:100CC00023260101EFF04FC30328C10013040500E0
:100CD00063020504930740002322F5001305C500B5
:100CE000232004002324A4001306001A9305000007
:100CF00023260101EF00C0650328C1009306F0FF21
:100D000023208800130804006FF09FF0EFF01FD736
:100D10006FF09FEF2320080013050032EF000063FF
:100D20009307C00023A0F4006FF09FF6130101FFAA
:100D3000232481001304050013050032232611002B
:100D4000EF00405F83274403639C07008327C02F85
:100D500017070000130787C4232AE402638C0700E7
:100D6000032481008320C100130500321301010117
:100D70006F00C05DEFF09FD0032481008320C1008D
:100D800013050032130101016F00405C13050032AE
:100D90006F00405A130500326F00405B130101FFE2
:100DA0001305003223261100EF00C0588320C10034
:100DB0001306807397050000938585C41305000012
:100DC000130101016F000003130101FF130680737B
:100DD000970500009385C5C6130500002326110062
:100DE000EF0040018320C10013050032130101010F
:100DF0006F00C055130101FD23202103232E310173
:100E0000232C4101232A510123286101232671014A
:100E1000232611022324810223229102930A060031
:100E2000130B0500938B0500130A000093091000B3
:100E30001309F0FF83A44A009384F4FF63CA0402F9
:100E400003A48A008357C40063FEF9008317E400FB
:100E50009305040013050B0063862701E7800B0050
:100E6000336AAA009384F4FF13048406E39C24FDF0
:100E700083AA0A00E3900AFC8320C10203248102B2
:100E800083244102032901028329C101832A4101EC
:100E9000032B0101832BC10013050A00032A8101E2
:100EA0001301010367800000130101FF2324810067
:100EB000138405008395E50023261100EF00802DA3
:100EC00063400502832704058320C100B387A70080
:100ED0002328F4040324810013010101678000002A
:100EE0008357C40037F7FFFF1307F7FFB3F7E70097
:100EF0008320C1002316F4000324810013010101A3
:100F00006780000013050000678000008397C5001C
:100F1000130101FE13830600232E110093F6071020
:100F2000138705009308060013080500639806025E
:100F3000B7F6FFFF9386F6FF8320C101B3F7D70012
:100F40008315E7002316F7009306030013860800B5
:100F500013050800130101026F00802E8395E50040
:100F60002324C100930620001306000023266100FD
:100F70002320E1002322A100EF00001C0327010031
:100F80000323C100832881008317C7000328410081
:100F90006FF01FFA130101FF232481001384050061
:100FA0008395E50023261100EF0000191307F0FFD9
:100FB0008317C4006302E50237170000B3E7E700B8
:100FC0008320C1002328A4042316F40003248100F5
:100FD00013010101678000001307058013070780D4
:100FE000B3F7E7008320C1002316F4000324810037
:100FF00013010101678000008395E5006F00400048
:10100000130101FF2324810013040500138505004B
:101010002320003023261100EF1080069307F0FFF5
:10102000630AF5008320C10003248100130101013C
:101030006780000083270030E38607FE8320C1001D
:101040002320F400032481001301010167800000C4
:10105000970700F083A70784638EA70C83254504B8
:10106000130101FE232A9100232E1100232C81005D
:1010700093040500638805042328210123263101F8
:101080001309000093090008B387250103A4070092
:10109000630E040093050400032404001385040078
:1010A000EF00C064E31804FE83A54404130949005B
:1010B000E31C39FD13850400EF004063032901019F
:1010C0008329C10083A5840363860500138504007A
:1010D000EF00C06103A40404630C04009305040042
:1010E0000324040013850400EF004060E31804FEAD
:1010F00083A5C4046386050013850400EF00005F28
:1011000083A74403638E0700032481018320C10168
:101110001385040083244101130101026780070045
:101120008320C101032481018324410113010102B1
:10113000678000006780000093870500130101FFAE
:10114000232481009305060013040500138606007E
:10115000138507002326110023200030EF0050796B
:101160009307F0FF630AF5008320C1000324810088
:10117000130101016780000083270030E38607FE2A
:101180008320C1002320F400032481001301010106
:101190006780000093870500130101FF232481006D
:1011A0009305060013040500138606001385070047
:1011B0002326110023200030EF0090779307F0FFE3
:1011C000630AF5008320C10003248100130101019B
:1011D0006780000083270030E38607FE8320C1007C
:1011E0002320F40003248100130101016780000023
:1011F000130101FF2324810013040500138505005A
:101200002320003023261100EF0090769307F0FF93
:10121000630AF5008320C10003248100130101014A
:101220006780000083270030E38607FE8320C1002B
:101230002320F400032481001301010167800000D2
:1012400093870500130101FF232481009305060005
:1012500013040500138606001385070023261100DA
:1012600023200030EF0090789307F0FF630AF50029
:101270008320C10003248100130101016780000065
:1012800083270030E38607FE8320C1002320F4007B
:10129000032481001301010167800000130101FF95
:1012A00023248100232021012326110023229100E1
:1012B0001309000013040000630289023309894006
:1012C00013592940930400008327040093841400D9
:1012D00013044400E7800700E3E824FF130900003B
:1012E000130400006302890233098940135929401D
:1012F0009304000083270400938414001304440023
:10130000E7800700E3E824FF8320C1000324810075
:1013100083244100032901001301010167800000BB
:101320006780000067800000678000006780000021
:1013300067800000678000001305100067800000D0
:1013400013051000678000006780000067800000C0
:101350001303F00013070500637EC3029377F700C1
:101360006390070A63920508937606FF1376F600EA
:10137000B386E6002320B7002322B7002324B7005A
:101380002326B70013070701E366D7FE63140600A0
:1013900067800000B306C3409396260097020000C2
:1013A000B38656006780C6002307B700A306B700C0
:1013B0002306B700A305B7002305B700A304B700B1
:1013C0002304B700A303B7002303B700A302B700A9
:1013D0002302B700A301B7002301B700A300B700A1
:1013E0002300B7006780000093F5F50F9396850002
:1013F000B3E5D50093960501B3E5D5006FF0DFF6B0
:101400009396270097020000B3865600938200004F
:10141000E78006FA93800200938707FF3307F740BF
:101420003306F600E378C3F66FF0DFF393070000AE
:101430006388070017150000130585B16F0080173A
:1014400067800000130101FD2326710197FBFFEF68
:10145000938B8B4423286101130B050003A50B001C
:10146000232C4101130A403223202103232481012C
:1014700023261102138C0500EFF0DFEB03290A008D
:10148000630C0908232E3101232A510123248102F0
:1014900023229102232291019309F0FF930A100065
:1014A000832449001384F4FF634E040493942400BE
:1014B000B304990063140C088327490083A64400F1
:1014C0009387F7FF6388870C23A2040063860602D4
:1014D0008327891833978A00832C4900B377F70054
:1014E00063920708E78006000327490083270A0064
:1014F000631C9709639A27091304F4FF9384C4FFBC
:10150000E31A34FB03248102832441028329C101AD
:10151000832A4101832C410003A50B008320C102D3
:1015200003290102032A8101032B0101832BC1003E
:10153000032C8100130101036FF05FE183A74410C6
:101540001307F4FFE30AFCF61304E4FFE30C37FB94
:1015500083A7041063848705938484FFE31034FF1A
:101560006FF05FFA8327C91883A544083377F70023
:10157000631C070213050B00E780060003274900E0
:1015800083270A00E30897F7E38E07F6138907001D
:101590006FF01FF1232289006FF05FF3130407003F
:1015A0009384C4FF6FF05FF113850500E7800600A8
:1015B0006FF09FF3930505009306000013060000EB
:1015C000130500006F00D01D130101FE232C8100C4
:1015D000232A9100232821012326310113840500A9
:1015E000232E11001309050093090033EFF08FB883
:1015F00083A789003717000083A4470093F4C4FF32
:101600009387F47F9387077F338487401354C40004
:101610001304F4FF1314C400634EE40093050000A8
:1016200013050900EFF0DFBC83A78900B38797009B
:101630006306F50213050900EFF04FB48320C101E2
:101640000324810183244101032901018329C1006D
:10165000130500001301010267800000B3058040FC
:1016600013050900EFF0DFB89307F0FF6304F504FA
:1016700003A7890083270000B384844093E4140007
:101680002322970013050900B38787402320F00029
:10169000EFF0CFAE8320C1010324810183244101F7
:1016A000032901018329C100130510001301010260
:1016B000678000009305000013050900EFF05FB399
:1016C00003A789009306F000B307E540E3D4F6F6DC
:1016D00097F6FFEF83A6861B93E717002322F700F8
:1016E0003305D5402320A0006FF0DFF4638E051092
:1016F000130101FE232C81002326B10013040500F1
:10170000232E1100EFF00FA78325C10093080033AB
:1017100003A8880003A5C5FF138785FF9377E5FF1E
:101720003306F700832646001373150093F6C6FFB1
:101730006304C8182322D6003308D60003284800C3
:10174000137818006318030803A385FF130580337B
:101750003307674083258700B38767006388A51236
:101760000323C70023A665002324B300630C0818D5
:1017700093E617002322D7002320F6009306F01FDC
:1017800063E0F60A93F687FF9386860083A54800F8
:10179000B386D80003A6060013D5570093071000A0
:1017A000B397A700B3E7B700938586FF2324C7004C
:1017B0002326B70023A2F80023A0E6002326E60094
:1017C00013050400032481018320C10113010102D8
:1017D0006FF0CF9A631C0802B387D70013058033DC
:1017E0008326860013E81700B305F7006382A61668
:1017F0000326C60023A6C6002324D6002322070101
:1018000023A0F5006FF09FF76780000013651500B7
:1018100023AEA5FE2320F6009306F01FE3F4F6F6B0
:1018200093D69700130640006362D60E93D66700E6
:10183000938596039395350013868603B385B80088
:1018400083A60500938585FF6398D5006F0000127D
:1018500083A686006388D50003A646001376C6FFDC
:10186000E3E8C7FE83A5C6002326B7002324D700DC
:1018700013050400032481018320C10123A4E50092
:1018800023A6E600130101026FF04F8F6312080ACE
:101890008325C60003268600B386F60093E716006C
:1018A0002326B60023A4C5002322F7003307D70060
:1018B0002320D7006FF0DFF0B386D7006310030258
:1018C00083A785FF3307F74003268700B386F6001A
:1018D0008327C7002326F60023A4C70013E61600BB
:1018E00097F7FFEF83A7C7FA2322C70023A4E800D6
:1018F000E3E8F6EC8325802F13050400EFF0DFCC3E
:101900006FF01FECB387D7006FF09FED1306400117
:101910006378D602130640056368D60693D6C700DF
:101920009385F606939535001386E6066FF01FF152
:1019300093E617002322D7002320F6006FF05FE81C
:101940009385C605939535001386B6056FF01FEF96
:1019500023AAE80023A8E8002326A7002324A70041
:101960002322070123A0F5006FF09FE503A548009F
:101970001356264093071000B397C700B3E7A7009C
:1019800023A2F8006FF05FEE13064015636CD600DB
:1019900093D6F700938586079395350013867607CF
:1019A0006FF0DFE913064055636CD60093D627012C
:1019B0009385D607939535001386C6076FF01FE809
:1019C0009305803F1306E0076FF05FE7130101FF07
:1019D00023261100232021016382050E2324810088
:1019E000232291001384050093040500630605007B
:1019F0008327450363800710832744060317C40029
:101A000093F717006396070A137707206308070EFA
:101A10009305040013850400EF0000138327C4021C
:101A200013090500638A07008325C4011385040098
:101A3000E78007006340050A8357C40093F707084F
:101A40006392070A83250403638C0500930704044B
:101A50006386F50013850400EFF05FC923280402B4
:101A6000832544046388050013850400EFF01FC834
:101A700023220404EFF08FB18327440623160400C9
:101A800093F717006384070A03258405EFF01F8A84
:101A9000EFF04FB08320C100032481008324410074
:101AA00013050900032901001301010167800000EB
:101AB000E31007F603248100832441008320C10042
:101AC0001309000013050900032901001301010196
:101AD000678000008357C4001309F0FF93F70708DD
:101AE000E38207F68325040113850400EFF01FC08D
:101AF0006FF05FF5EFF08FA36FF01FF00325840503
:101B0000EFF05F838317C400E39407F08327440654
:101B100093F71700E39007FA03258405EFF01F837E
:101B200003248100832441006FF05FF903258405BD
:101B3000EFF0DF816FF05FF59305050017F5FFEF1C
:101B4000032545D56FF09FE80397C500130101FEFB
:101B5000232C810023263101232E11009377870047
:101B6000138405009309050063920712B71700005C
:101B70009387078083A64500B367F7002396F50097
:101B8000635CD018032884026306080E232A9100A0
:101B90009316370183A4090023A0090063CA06181D
:101BA0008325C40113060000930610001385090065
:101BB000E70008009307F0FF13060500630CF51A11
:101BC0008317C4000328840293F74700638E07003D
:101BD00003274400832704033306E6406386070097
:101BE0008327C4033306F6408325C401930600000F
:101BF00013850900E70008001307F0FF8317C400EE
:101C0000631CE51283A609001307D0016362D7188D
:101C100037074020130717003357D70013771700F3
:101C2000630807168326040137F7FFFF1307F77FC2
:101C300033F7E7002316E400232204002320D40016
:101C4000139737016356070083A7090063880710BD
:101C50008325040323A09900638A051093070404D5
:101C60006386F50013850900EFF05FA88324410126
:101C7000232804028320C101032481018329C10098
:101C800013050000130101026780000023282101D1
:101C900003A90501630A0908232A910083A405000A
:101CA0001377370023A02501B38424419307000054
:101CB0006314070083A745012324F40063489000C0
:101CC0006F0040063309A900635E90048327440235
:101CD0008325C401938604001306090013850900B7
:101CE000E7800700B384A440E34EA0FC8357C40000
:101CF0000329010193E707048320C1012316F4009F
:101D000003248101832441018329C1001305F0FFCD
:101D1000130101026780000083A6C503E344D0E6F7
:101D20006FF05FF583244101032901016FF09FF4F7
:101D3000032604056FF05FE98326040137F7FFFFF0
:101D40001307F77F33F7E7002316E400232204008C
:101D50002320D40013973701E35C07EE83250403A7
:101D60002328A40423A09900E39A05EE83244101CB
:101D70006FF05FF083A70900E38407E4138737FE61
:101D8000630C07009387A7FE638807008357C4008E
:101D900093E707046FF05FF623A0990083244101C5
:101DA0006FF05FED130101FE232E110013070500F4
:101DB0006306050083274503638E07088396C500E5
:101DC000930700006382060483A7450693F7170074
:101DD0006396070093F60620638006041305070048
:101DE0002324B100EFF05FD683258100930705001F
:101DF00003A74506137717006318070003D7C5002C
:101E000013770720630807028320C10113850700A9
:101E1000130101026780000003A585052326E10068
:101E20002324B100EFF00FD10327C10083258100E7
:101E30006FF0DFFA2324A10003A58505EFF00FD191
:101E4000832781008320C10113850700130101024C
:101E5000678000002326B1002324A100EFE01FEDDE
:101E60008325C100032781006FF05FF56306050C31
:101E700017F7FFEF032707A2130101FE232E11001E
:101E80009305050063060700832747036380070661
:101E90008396C500930700006382060483A7450666
:101EA00093F717006396070093F60620638E0604E7
:101EB000130507002324B100EFF01FC9832581001B
:101EC0009307050003A7450613771700631807005B
:101ED00003D7C50013770720630607048320C101D9
:101EE0001385070013010102678000002326A1006B
:101EF000130507002324E100EFE05FE38325C10021
:101F0000032781006FF0DFF803A585052326E10094
:101F10002324B100EFF00FC20327C1008325810005
:101F20006FF01FF92324A10003A58505EFF00FC270
:101F3000832781006FF09FFA1306807397050000D6
:101F4000938585E6130580746FE0DFEA9307000050
:101F500013070000130101FFB387E740232291001C
:101F60002326110093D42740638404022324810094
:101F70001304C0FF3304F400832704009384F4FFA8
:101F80001304C4FFE7800700E39804FE03248100E4
:101F90008320C100832441001301010167800000F8
:101FA000130101FD2324810217F4FFEF1304C48EF3
:101FB000232291029304050003250400232021031A
:101FC000232E31012326B100232611021309060016
:101FD00093890600EFF00FB6832740328325C100B6
:101FE0006384070803A747009306F0010325040054
:101FF00063C2E60893162700639C040213071700C8
:1020000023A2E700B387D70023A4B700EFF00FB4F3
:10201000130500008320C1020324810283244102AE
:10202000032901028329C101130101036780000014
:10203000B388D70023A4280903A887181306100023
:102040003316E6003368C80023A4071923A4381107
:1020500013082000E39404FB03A8C7183366C800E4
:1020600023A6C7186FF09FF9930700162322F032BA
:102070006FF05FF7EFF08FAD1305F0FF6FF09FF992
:10208000930890037300000063440500678000001C
:10209000130101FE232E11002326A100EF000019D9
:1020A0008327C1008320C101B307F0402320F5003E
:1020B0009307F0FF138507001301010267800000FA
:1020C0009308D00573000000634405006F00000012
:1020D000130101FE232E11002326A100EF0000159D
:1020E0008327C100B307F0402320F5006F000000F4
:1020F0009308E0037300000063440500678000005C
:10210000130101FE232E11002326A100EF0000126F
:102110008327C1008320C101B307F0402320F500CD
:102120009307F0FF13850700130101026780000089
:102130009308F0037300000063440500678000000B
:10214000130101FE232E11002326A100EF00000E33
:102150008327C1008320C101B307F0402320F5008D
:102160009307F0FF13850700130101026780000049
:102170009306803283A70600130101FF2326110076
:1021800013070500639007029308600D1305000014
:10219000730000009307F0FF630CF502930705003E
:1021A00023A0A6003305F7009308600D730000001C
:1021B00083A706003307F700631CE5008320C100F6
:1021C00023A0A6001385070013010101678000000A
:1021D000EF00C0058320C1009307C0002320F50055
:1021E0001305F0FF1301010167800000930800044C
:1021F000730000006344050067800000130101FEC6
:10220000232E11002326A100EF0040028327C100E6
:102210008320C101B307F0402320F5009307F0FFAE
:1022200013850700130101026780000017E5FFEF27
:082230000325456667800000EC
:012238004560
:10223900000000000000000030030000300300002F
:102249003803000038030000400300004003000089
:102259004803000048030000500300005003000039
:1022690058030000580300006003000060030000E9
:102279006803000068030000700300007003000099
:102289007803000078030000800300008003000049
:1022990088030000880300009003000090030000F9
:1022A9009803000098030000A0030000A0030000A9
:1022B900A8030000A8030000B0030000B003000059
:1022C900B8030000B8030000C0030000C003000009
:1022D900C8030000C8030000D0030000D0030000B9
:1022E900D8030000D8030000E0030000E003000069
:1022F900E8030000E8030000F0030000F003000019
:10230900F8030000F80300000004000000040000C6
:102319000804000008040000100400001004000074
:102329001804000018040000200400002004000024
:1023390028040000280400003004000030040000D4
:102349003804000038040000400400004004000084
:102359004804000048040000500400005004000034
:1023690058040000580400006004000060040000E4
:102379006804000068040000700400007004000094
:102389007804000078040000800400008004000044
:1023990088040000880400009004000090040000F4
:1023A9009804000098040000A0040000A0040000A4
:1023B900A8040000A8040000B0040000B004000054
:1023C900B8040000B8040000C0040000C004000004
:1023D900C8040000C8040000D0040000D0040000B4
:1023E900D8040000D8040000E0040000E004000064
:1023F900E8040000E8040000F0040000F004000014
:10240900F8040000F80400000005000000050000C1
:10241900080500000805000010050000100500006F
:10242900180500001805000020050000200500001F
:1024390028050000280500003005000030050000CF
:10244900380500003805000040050000400500007F
:10245900480500004805000050050000500500002F
:1024690058050000580500006005000060050000DF
:10247900680500006805000070050000700500008F
:10248900780500007805000080050000800500003F
:1024990088050000880500009005000090050000EF
:1024A9009805000098050000A0050000A00500009F
:1024B900A8050000A8050000B0050000B00500004F
:1024C900B8050000B8050000C0050000C0050000FF
:1024D900C8050000C8050000D0050000D0050000AF
:1024E900D8050000D8050000E0050000E00500005F
:1024F900E8050000E8050000F0050000F00500000F
:10250900F8050000F80500000006000000060000BC
:10251900080600000806000010060000100600006A
:10252900180600001806000020060000200600001A
:1025390028060000280600003006000030060000CA
:10254900380600003806000040060000400600007A
:10255900480600004806000050060000500600002A
:1025690058060000580600006006000060060000DA
:10257900680600006806000070060000700600008A
:10258900780600007806000080060000800600003A
:1025990088060000880600009006000090060000EA
:1025A9009806000098060000A0060000A00600009A
:1025B900A8060000A8060000B0060000B00600004A
:1025C900B8060000B8060000C0060000C0060000FA
:1025D900C8060000C8060000D0060000D0060000AA
:1025E900D8060000D8060000E0060000E00600005A
:1025F900E8060000E8060000F0060000F00600000A
:10260900F8060000F80600000007000000070000B7
:102619000807000008070000100700001007000065
:102629001807000018070000200700002007000015
:102639002807000028070000000000000300000030
:102649002800000000000000000000002800000031
:1026590090000000F80000000000000000000000E9
:102669000000000000000000000000000000000061
:102679000000000000000000000000000000000051
:102689000000000000000000000000000000000041
:102699000000000000000000000000000000000031
:1026A9000000000000000000000000000000000021
:1026B9000000000000000000000000000000000011
:1026C9000000000000000000000000000000000001
:1026D90000000000000000000000000000000000F1
:1026E90001000000000000000E33CDAB34126DE68E
:1026F900ECDE05000B0000000000000000000000F7
:1027090000000000000000000000000000000000C0
:1027190000000000000000000000000000000000B0
:1027290000000000000000000000000000000000A0
:102739000000000000000000000000000000000090
:102749000000000000000000000000000000000080
:102759000000000000000000000000000000000070
:102769000000000000000000000000000000000060
:102779000000000000000000000000000000000050
:102789000000000000000000FFFFFFFF0000020042
:08279900480700001C030000CA
:0427A1002C140010E4
:040000051000005097
:00000001FF
