:040000001000811754
:0400010000010113E6
:0400020010C0051312
:04000300100005974D
:04000400FF4585939C
:0400050010000617CA
:04000600FEC6061319
:0400070000C5DC63F1
:04000800000522834A
:040009000055A023DB
:04000A000045051395
:04000B000045859394
:04000C00FEDFF06FB4
:04000D0010000517C3
:04000E00FCC5051315
:04000F001000059741
:04001000FC45859393
:0400110000B558637B
:0400120000052023A2
:04001300004505138C
:04001400FF5FF06F2B
:04001500008000EF78
:040016000000006F77
:04001700FF010113D1
:04001800001126238A
:04001900008124231B
:04001A0001010413C9
:04001B0000A0051329
:04001C0001C000EF30
:04001D000005079340
:04001E00000785133F
:04001F0000C1208379
:040020000081240334
:0400210001010113C5
:0400220000008067F3
:04002300FD010113C7
:04002400021126237C
:04002500028124230D
:0400260003010413BB
:04002700FCA42E23E4
:04002800FE0422238D
:040029000010079329
:04002A00FEF4262397
:04002B000010079327
:04002C00FEF4242397
:04002D00FE0420238A
:04002E000300006F5C
:04002F00FEC42703E1
:04003000FE842783A0
:0400310000F707B31A
:04003200FEF4222393
:04003300FEC427835D
:04003400FEF424238F
:04003500FE442783DB
:04003600FEF426238B
:04003700FE04278319
:040038000017879393
:04003900FEF420238E
:04003A00FE04270396
:04003B00FDC4278356
:04003C00FCF766E384
:04003D00FE442783D3
:04003E00000785131F
:04003F0002C1208357
:040040000281240312
:0400410003010113A3
:0400420000008067D3
:00000001FF
