:040000001000811754
:0400010000010113E6
:040002000B40051397
:04000300100005974D
:04000400FF4585939C
:0400050010000617CA
:04000600FEC6061319
:0400070000C5DC63F1
:04000800000522834A
:040009000055A023DB
:04000A000045051395
:04000B000045859394
:04000C00FEDFF06FB4
:04000D0010000517C3
:04000E00FCC5051315
:04000F001000059741
:04001000FC45859393
:0400110000B558637B
:0400120000052023A2
:04001300004505138C
:04001400FF5FF06F2B
:04001500008000EF78
:040016000000006F77
:04001700FE010113D2
:0400180000112E2382
:0400190000812C2313
:04001A0002010413C8
:04001B00100007B713
:04001C0010078793AF
:04001D00FEF42623A4
:04001E00FEEDC7B775
:04001F00EEF787135E
:04002000FEC4278370
:0400210000E7A02331
:04002200FEC427836E
:040023000007A783A8
:04002400FEF424239F
:04002500FE842783AB
:040026000007851337
:0400270001C1208370
:04002800018124032B
:0400290002010113BC
:04002A0000008067EB
:04002B00FEEDBEEF39
:04002C0010000100BF
:00000001FF
