:1000000017810010130101001305C00A97050010A5
:10001000938545FF17060010130646FF63DCC500F5
:100020008322050023A05500130545009385450054
:100030006FF0DFFE170500101305C5FC97050010D3
:10004000938545FC6358B500232005001305450042
:100050006FF05FFFEF0080006F000000130101FEF2
:10006000232E1100232C810013040102B707001076
:1000700083A747002326F4FEB707001003A7070055
:100080008327C4FE23A0E7008327C4FE83A70700BD
:100090002324F4FE832784FE138507008320C101F7
:0C00A000032481011301010267800000AD
:0800AC00EFBEEDFE00010010A3
:00000001FF
