:10000000178100101301010013054010970500101F
:10001000938545FF170600101306C6FE63DCC50076
:100020008322050023A05500130545009385450054
:100030006FF0DFFE170500101305C5FC97050010D3
:10004000938545FC6358B500232005001305450042
:100050006FF05FFFEF0080006F000000130101FEF2
:10006000232E1100232C8100130401029307A0000A
:100070002326F4FE0325C4FEEF0000022324A4FE81
:10008000832784FE138507008320C1010324810197
:100090001301010267800000130101FD23261102F4
:1000A0002324810213040103232EA4FC232604FE2F
:1000B000930710002324F4FE232204FE6F000003A4
:1000C0000327C4FE832784FEB307F7002320F4FE32
:1000D000832784FE2326F4FE832704FE2324F4FED4
:1000E000832744FE938717002322F4FE032744FE50
:1000F0008327C4FDE346F7FC8327C4FE138E070065
:040100006F0000008C
:00000001FF
