:040000001000811754
:0400010000010113E6
:040002001040051392
:04000300100005974D
:04000400FF4585939C
:0400050010000617CA
:04000600FEC6061319
:0400070000C5DC63F1
:04000800000522834A
:040009000055A023DB
:04000A000045051395
:04000B000045859394
:04000C00FEDFF06FB4
:04000D0010000517C3
:04000E00FCC5051315
:04000F001000059741
:04001000FC45859393
:0400110000B558637B
:0400120000052023A2
:04001300004505138C
:04001400FF5FF06F2B
:04001500008000EF78
:040016000000006F77
:04001700FE010113D2
:0400180000112E2382
:0400190000812C2313
:04001A0002010413C8
:04001B0000A00793A7
:04001C00FEF42623A5
:04001D00FEC42503F5
:04001E00020000EFED
:04001F00FEA42423F4
:04002000FE842783B0
:04002100000785133C
:0400220001C1208375
:040023000181240330
:0400240002010113C1
:0400250000008067F0
:04002600FD010113C4
:040027000211262379
:04002800028124230A
:0400290003010413B8
:04002A00FCA42E23E1
:04002B00FE04262386
:04002C000010079326
:04002D00FEF4242396
:04002E00FE04222387
:04002F000300006F5B
:04003000FEC42703E0
:04003100FE8427839F
:0400320000F707B319
:04003300FEF4202394
:04003400FE8427839C
:04003500FEF426238C
:04003600FE0427831A
:04003700FEF424238C
:04003800FE442783D8
:040039000017879392
:04003A00FEF422238B
:04003B00FE44270355
:04003C00FDC4278355
:04003D00FCF746E3A3
:04003E00FEC4278352
:04003F0000078E1315
:040040000000006F4D
:00000001FF
